:100000000C9463000C948B000C948B000C943105C1
:100010000C9431050C9431050C948B000C948B00DE
:100020000C948B000C948B000C948B000C948B0024
:100030000C948B000C948B000C948B000C948B0014
:100040000C948F040C948B000C94FF040C94D90432
:100050000C948B000C948B000C948B000C948B00F4
:100060000C948B000C948B000000000024002700EF
:100070002A0000000008000201000003040700003D
:1000800000000000000000000000250028002B00F8
:1000900000000000230026002900040404040404D6
:1000A0000404020202020202030303030303010227
:1000B00004081020408001020408102001020408F6
:1000C0001020AB05A10811241FBECFEFD8E0DEBF82
:1000D000CDBF23E0AAEFB1E001C01D92A331B2076A
:1000E000E1F711E0A0E0B1E0E4ECF6E102C0059038
:1000F0000D92AA3FB107D9F710E0C2E6D0E004C0E4
:100100002197FE010E943809C136D107C9F70E9424
:100110005B060C94550B0C940000833081F028F49E
:10012000813099F08230A1F008958730A9F08830AD
:10013000B9F08430D1F4809180008F7D03C080912C
:1001400080008F7780938000089584B58F7702C0F8
:1001500084B58F7D84BD08958091B0008F7703C0F2
:100160008091B0008F7D8093B00008951F93CF934E
:10017000DF93282F30E0F901EE58FF4F8491F90109
:10018000E255FF4FD491F901E656FF4FC491CC23BD
:10019000C9F0162F81110E948D00EC2FF0E0EE0FB8
:1001A000FF1FEA57FF4FA591B4918FB7F894111133
:1001B00005C09C91ED2FE095E92302C0EC91ED2B59
:1001C000EC938FBFDF91CF911F910895CF93DF9371
:1001D00090E0FC01E255FF4F2491FC01E656FF4FF1
:1001E0008491882361F190E0880F991FFC01E85900
:1001F000FF4FC591D491FC01EA57FF4FA591B491EF
:10020000611109C09FB7F894888120958223888363
:10021000EC912E230BC0623061F49FB7F8943881C3
:10022000822F809583238883EC912E2B2C939FBF64
:1002300006C08FB7F894E8812E2B28838FBFDF91FB
:10024000CF910895FC01248135816217730748F42A
:1002500080819181009729F0FC01E60FF71F8081D2
:10026000089580E00895CF92DF92EF92FF920F936E
:100270001F93CF93DF936C017A018B01C0E0D0E034
:10028000CE15DF0589F0D8016D918D01D601ED9174
:10029000FC910190F081E02DC6010995892B11F4A4
:1002A0007E0102C02196ECCFC701DF91CF911F9153
:1002B0000F91FF90EF90DF90CF900895FC01538D48
:1002C000448D252F30E0842F90E0821B930B541730
:1002D00010F0CF96089501970895FC01918D828DBD
:1002E000981761F0828DDF01A80FB11D5D968C918A
:1002F000928D9F5F9F73928F90E008958FEF9FEF95
:100300000895FC01918D828D981731F0828DE80F50
:10031000F11D858D90E008958FEF9FEF0895FC010A
:10032000918D228D892F90E0805C9F4F821B9109D7
:100330008F73992708958DE492E00E948F0121E048
:10034000892B09F420E0822F0895FC01848DDF01C0
:10035000A80FB11DA35ABF4F2C91848D90E0019638
:100360008F739927848FA689B7892C93A089B18927
:100370008C9180648C93938D848D981306C0028831
:10038000F389E02D80818F7D80830895EF92FF9225
:100390000F931F93CF93DF93EC0181E0888F9B8DA8
:1003A0008C8D981305C0E889F989808185FD24C06A
:1003B000F62E0B8D10E00F5F1F4F0F731127E02EED
:1003C0008C8DE8120CC00FB607FCFACFE889F989CA
:1003D000808185FFF5CFCE010E94A501F1CF8B8DE5
:1003E000FE01E80FF11DE35AFF4FF0820B8FEA89FF
:1003F000FB898081806207C0EE89FF896083E8897C
:10040000F98980818064808381E090E0DF91CF91E1
:100410001F910F91FF90EF900895CF93DF93EC0120
:10042000888D8823C9F0EA89FB89808185FD05C014
:10043000A889B9898C9186FD0FC00FB607FCF5CF4E
:10044000808185FFF2CFA889B9898C9185FFEDCF96
:10045000CE010E94A501E7CFDF91CF91089580E002
:1004600090E0892B29F00E949B0181110C940000DF
:10047000089520913C0230913D022817390771F40C
:1004800090913A0280913B02981741F0E0913A0234
:10049000F0E0E650FE4F808190E008958FEF9FEFEF
:1004A000089508951F93CF93DF93DC015C962D91FF
:1004B0003C915D972115310539F481E090E0139668
:1004C0009C938E9312973DC05196ED91FC9152975B
:1004D00050969C915097892F80951FB75E964C91AE
:1004E0005E9741FB772770F941FD6095F894408154
:1004F000772311F0492B01C048234083E90121975C
:10050000F1F748E0508160FF02C0592B01C0582329
:100510005083E9012197F1F76695415099F77723C8
:1005200021F090818923808303C08081982B908360
:100530001FBF5C968D919C915D970197F1F721E02B
:1005400030E0C901DF91CF911F91089520913C02C5
:1005500030913D022817390771F480913B022091B8
:100560003A0290E0805C9F4F821B910960E470E04A
:100570000E941009089580E090E0089520913C02C7
:1005800030913D0228173907B9F490913A028091D1
:100590003B02981789F0E0913A02F0E0E650FE4FF6
:1005A000808120913A0230E02F5F3F4F2F73332735
:1005B00020933A0290E008958FEF9FEF0895E09125
:1005C0003C02F0913D02E817F90769F4A389B48968
:1005D0009C918589809589238C9310923D0210927D
:1005E0003C0281E0089580E00895089580E090E065
:1005F0000895FC01808191810C94D3090F931F937E
:10060000CF93DF93EC0188819981009729F02A81AB
:100610003B812617370788F48B016F5F7F4F0E945D
:100620006B0A009761F0998388831B830A832C816E
:100630003D81232B11F4FC01108281E001C080E098
:10064000DF91CF911F910F910895EF92FF920F9339
:100650001F93CF93DF93FC012481358161157105D0
:1006600011F480E019C041155105A9F07B01EC019E
:100670008A01020F131FB8010E94FE02882389F32A
:10068000288139818C819D81B701820F931F0E943F
:100690004E0B1D830C8381E0DF91CF911F910F9151
:1006A000FF90EF900895EF92FF920F931F93CF93D7
:1006B000DF93CDB7DEB727970FB6F894DEBF0FBE36
:1006C000CDBF7C01CB014AE08E010F5F1F4FB80107
:1006D0000E94AF08F80101900020E9F73197AF01BF
:1006E000401B510BB801C7010E94250327960FB686
:1006F000F894DEBF0FBECDBFDF91CF911F910F9158
:10070000FF90EF900895CF93DF9300D0CDB7DEB781
:1007100069831A8241E050E0BE016F5F7F4F0E9403
:1007200025030F900F90DF91CF910895611571050A
:1007300051F0FB0101900020E9F73197AF01461B12
:10074000570B0C94250380E00895EF92FF920F93CE
:100750001F93CF93DF93EC017B018A01BA010E94C2
:10076000FE022881398181110DC02115310519F052
:10077000C9010E94D309198218821D821C821B8222
:100780001A8206C01D830C83B701C9010E944E0B5B
:10079000CE01DF91CF911F910F91FF90EF900895BF
:1007A000FB01DC0111961C921E9213961C921E9264
:1007B000129715961C921E9214978617970749F068
:1007C000608171816115710521F0448155810C941E
:1007D000A5030895FC0111821082138212821582F2
:1007E00014826115710551F0FB0101900020E9F7B9
:1007F0003197AF01461B570B0C94A5030895CF9278
:10080000DF92EF92FF920F931F93CF93DF938C01B0
:10081000EB016A016CEE71E00E94EA034C815D819C
:100820006881798180EF92E00E9433012FB7F894BC
:100830008091430290914402A0914502B0914602FA
:100840002FBF0D2C000CEE08FF08C80ED91EEA1EA3
:10085000FB1E2FB7F8948091430290914402A0911F
:100860004502B09146022FBF8C159D05AE05BF0510
:1008700078F480EF92E00E94A602892B51F380EF7A
:1008800092E00E94BE02682FC8010E948303F1CF4C
:10089000F80184819581892B69F0E080F1806AE21A
:1008A00070E0C7010E94430B009721F0EC01CE19C4
:1008B000DF0902C0CFEFDFEFD0934C02C0934B02B1
:1008C0001C161D0604F5BE016F5F7F4FC8010E9414
:1008D000220180934A02BE016E5F7F4FC8010E94D1
:1008E000220180934902BE016D5F7F4FC8010E94C3
:1008F000220180934802BE016C5F7F4FC8010E94B5
:10090000220180934702C801DF91CF911F910F917F
:10091000FF90EF90DF90CF9008950E94350B1F92CB
:100920000F920FB60F9211242F933F938F939F93A3
:10093000AF93BF938091430290914402A0914502EE
:10094000B09146023091420223E0230F2D3720F46C
:100950000196A11DB11D05C026E8230F0296A11D19
:10096000B11D209342028093430290934402A093CE
:100970004502B093460280913E0290913F02A091C1
:100980004002B09141020196A11DB11D80933E022B
:1009900090933F02A0934002B0934102BF91AF9168
:1009A0009F918F913F912F910F900FBE0F901F90AD
:1009B00018951F920F920FB60F9211242F933F9309
:1009C0004F935F936F937F938F939F93AF93BF9357
:1009D000EF93FF938DE492E00E94A501FF91EF91C8
:1009E000BF91AF919F918F917F916F915F914F9147
:1009F0003F912F910F900FBE0F901F9018951F924F
:100A00000F920FB60F9211242F938F939F93EF9312
:100A1000FF93E0915D02F0915E028081E0916302BC
:100A2000F091640282FD12C09081809166028F5F16
:100A30008F7320916702821751F0E0916602F0E017
:100A4000E35BFD4F958F8093660201C08081FF912B
:100A5000EF919F918F912F910F900FBE0F901F904C
:100A600018951F920F920FB60F9211242F933F9358
:100A70004F935F936F937F938F939F93AF93BF93A6
:100A8000EF93FF93E0913C02F0913D02309709F41F
:100A900051C0968DA685B785858591FF04C09C9130
:100AA000892329F447C09C91892309F043C0A38975
:100AB000B4899C918589809589238C9386899789AF
:100AC0000197F1F7608D718DA685B785558538E062
:100AD00020E0CB010197F1F7822F90E09595879563
:100AE000282F4C91452309F02068315091F7868DCD
:100AF00081FD209580913B0290E001968F739927AC
:100B000030913A02381749F0A0913B02B0E0A6506C
:100B1000BE4F2C9380933B0203C0868D8160868FED
:100B2000828D938D0197F1F7A389B4899C91858972
:100B3000892B8C93FF91EF91BF91AF919F918F91F2
:100B40007F916F915F914F913F912F910F900FBEC9
:100B50000F901F9018951092500210924F0288EE3D
:100B600093E0A0E0B0E08093510290935202A093F2
:100B70005302B09354022AE031E030934E022093A6
:100B80004D0225EC30E030935A022093590224ECB8
:100B900030E030935C0220935B0220EC30E0309335
:100BA0005E0220935D0221EC30E0309360022093DE
:100BB0005F0222EC30E0309362022093610226EC67
:100BC00030E0309364022093630210926602109228
:100BD000670210926802109269021092F30210925A
:100BE000F2028093F4029093F502A093F602B09380
:100BF000F7028CE191E09093F1028093F002109261
:100C00000703109206031092090310920803109232
:100C10000B0310920A0310920D0310920C036091C3
:100C20000E036E7F6D7F60930E036695617081E0A9
:100C3000682782E00E94B60061E082E00E94E60040
:100C4000E0EBF0E0E491E0930003ECE9F0E0E49104
:100C5000F0E0EE0FFF1FEA57FF4F859194919093BC
:100C600002038093010360E083E00E94E60080912C
:100C70000E0381FD04C061E083E00E94B60083E0C2
:100C80008093FC02E1EBF0E0E491E093FD02EDE9FA
:100C9000F0E0E491F0E0EE0FFF1FE057FF4F859189
:100CA00094919093FF028093FE026CEE71E08AEEC5
:100CB00092E00C94EA03CF93DF93CDB7DEB7A4970D
:100CC0000FB6F894DEBF0FBECDBF789484B58260B6
:100CD00084BD84B5816084BD85B5826085BD85B5E0
:100CE000816085BD80916E00816080936E0010925E
:100CF00081008091810082608093810080918100D9
:100D00008160809381008091800081608093800069
:100D10008091B10084608093B1008091B0008160C7
:100D20008093B00080917A00846080937A008091F3
:100D30007A00826080937A0080917A00816080934B
:100D40007A0080917A00806880937A001092C100C6
:100D5000E0915D02F0915E0282E08083E0915902B1
:100D6000F0915A021082E0915B02F0915C0280E106
:100D7000808310926502E0916102F091620286E048
:100D80008083E0915F02F0916002808180618083C6
:100D9000E0915F02F0916002808188608083E09141
:100DA0005F02F0916002808180688083E0915F0241
:100DB000F091600280818F7D808310920B031092EE
:100DC0000A0310920903109208031092070310926D
:100DD00006038DE991E090930D0380930C039091AD
:100DE000FC02963108F057C02DEB30E0309307033A
:100DF000209306032BE931E0309309032093080385
:100E00002CE231E030930B0320930A032091680019
:100E1000983050F031E09E3008F430E081E001C0BD
:100E2000880F3A95EAF701C084E0822B809368002E
:100E3000983038F09E3040F0963148F020E030E0B5
:100E400008C02DE630E005C02BE630E002C02CE6FD
:100E500030E03093040320930303983030F481E0B2
:100E600001C0880F9A95EAF70EC0292F30E09E3016
:100E700018F42850310902C02E50310981E001C018
:100E8000880F2A95EAF78093050380910C039091CF
:100E90000D030197F1F780910A0390910B03892BC1
:100EA00021F180913C0290913D0222E0803F920727
:100EB000E1F0009711F00E94DF0280910E038E7F17
:100EC00080930E0310923B0210923A0280EF92E060
:100ED00090933D0280933C02E0910303F091040360
:100EE000908180910503892B80836AE271E0CE01B5
:100EF00007960E94EA0340ED57E0BE01695F7F4F0D
:100F0000CE0101960E94FF03CE0101960E94F902D4
:100F1000CE0107960E94F90262E08CE00E94E60092
:100F20000EE710E03AEBE32E30E0F32E46EAC42E53
:100F300040E0D42E80EF92E00E94A602892B09F0B7
:100F400096C063E371E0CE014F960E94EA036BE521
:100F500071E0CE0149960E94EA0360E671E0CE019D
:100F600043960E94EA036D8D7E8DCE0143960E94CA
:100F7000530368EE71E0CE0143960E9496034D8DB7
:100F80005E8D698D7A8DCE0143960E94250368EEB1
:100F900071E0CE0143960E9496036DEE71E0CE01A2
:100FA0000D960E94EA036F89788DCE010D960E94FE
:100FB00053036AEE71E0CE010D960E949603BE01C6
:100FC000615E7F4FCE0101960E94D0034AE050E05F
:100FD000BE016F5F7F4FCE0107960E94FF03CE01D7
:100FE00007960E94F902CE0101960E94F902BE0105
:100FF000635F7F4FCE0101960E94D0034AE050E02C
:10100000BE016F5F7F4FCE0107960E94FF03CE01A6
:1010100007960E94F902CE0101960E94F902BE01D4
:101020006D5E7F4FCE0101960E94D00340E253E0F7
:10103000BE016F5F7F4FCE0107960E94FF03CE0176
:1010400007960E94F902CE0101960E94F902CE0194
:101050000D960E94F902CE0143960E94F902CE013C
:1010600049960E94F902CE014F960E94F9026CEE59
:1010700071E0CE0101960E94EA036AE2CE01019678
:101080000E9483036091490280ED860F823008F050
:1010900062E3CE0101960E94830360914A0280EDD3
:1010A000860F823008F062E3CE0101960E9483032E
:1010B0006091480280ED860F823008F062E3CE0135
:1010C00001960E9483036091470280ED860F823073
:1010D00008F062E3CE0101960E94830360E4CE0132
:1010E00001960E9483034D815E8169817A818DE43E
:1010F00092E00E94330142E050E06AEE71E08DE43C
:1011000092E00E943301F8018491F701A490F60166
:10111000B490BB2079F081110E948D008B2D90E05E
:10112000880F991F80579F4FFC01A591B4918C9116
:10113000A82249F7CE0101960E94F9020E942F02CF
:10114000F9CE8AEE92E00E94F9028CE191E0909350
:10115000F1028093F00280EF92E00C94DF02BB2753
:10116000FB015527AA27880F991FAA1FA41710F063
:10117000A41B83955051B9F7A05DAA3308F0A95D6F
:10118000A193009779F7B111B1931192CB010C940F
:10119000C908DC01FC01672F71917723E1F73297D1
:1011A00004C07C916D9370836291AE17BF07C8F342
:1011B00008952F923F924F925F926F927F928F92FB
:1011C0009F92AF92BF92CF92DF92EF92FF920F93D6
:1011D0001F93CF93DF93CDB7DEB7CA1BDB0B0FB6E0
:1011E000F894DEBF0FBECDBF09942A88398848889D
:1011F0005F846E847D848C849B84AA84B984C88433
:10120000DF80EE80FD800C811B81AA81B981CE0F29
:10121000D11D0FB6F894DEBF0FBECDBFED0108950E
:1012200097FB072E16F4009407D077FD09D00E9493
:10123000240907FC05D03EF4909581959F4F0895B1
:10124000709561957F4F0895AA1BBB1B51E107C0A4
:10125000AA1FBB1FA617B70710F0A61BB70B881F46
:10126000991F5A95A9F780959095BC01CD010895D5
:10127000EE0FFF1F0590F491E02D0994CF93DF93BB
:101280008230910510F482E090E0E0911103F0913A
:10129000120320E030E0C0E0D0E0309711F140814F
:1012A000518148175907C0F04817590761F48281E6
:1012B0009381209719F09B838A832BC0909312030C
:1012C0008093110326C02115310519F042175307E9
:1012D00018F49A01BE01DF01EF010280F381E02DD5
:1012E000DCCF2115310509F1281B390B24303105DC
:1012F00090F412968D919C9113976115710521F0D0
:10130000FB019383828304C09093120380931103A3
:10131000FD01329644C0FD01E20FF31F81939193CA
:10132000225031092D933C933AC020910F03309104
:101330001003232B41F420910201309103013093DB
:10134000100320930F03209100013091010121151A
:10135000310541F42DB73EB740910401509105018C
:10136000241B350BE0910F03F0911003E217F307F4
:10137000A0F42E1B3F0B2817390778F0AC014E5F05
:101380005F4F2417350748F04E0F5F1F509310032F
:1013900040930F038193919302C0E0E0F0E0CF010E
:1013A000DF91CF9108950F931F93CF93DF93009711
:1013B00009F48CC0FC013297138212820091110350
:1013C000109112030115110581F420813181820FE2
:1013D000931F20910F03309110032817390779F5D7
:1013E000F0931003E0930F0371C0D80140E050E088
:1013F000AE17BF0750F412962D913C911397AD0193
:101400002115310509F1D901F3CF9D01DA013383AB
:10141000228360817181860F971F8217930769F479
:10142000EC0128813981260F371F2E5F3F4F318312
:1014300020838A819B8193838283452B29F4F093B7
:101440001203E093110342C01396FC93EE9312979C
:10145000ED01499159919E01240F351FE217F307C1
:1014600071F480819181840F951F029611969C934F
:101470008E938281938113969C938E931297E0E0D2
:10148000F0E0D80112968D919C911397009719F076
:10149000F8018C01F6CF8D919C9198012E5F3F4F02
:1014A000820F931F20910F033091100328173907E3
:1014B00069F4309729F4109212031092110302C0BC
:1014C000138212821093100300930F03DF91CF91C8
:1014D0001F910F910895A0E0B0E0E1E7FAE00C94CD
:1014E000DD08EC01009721F4CB010E943E09B8C051
:1014F000FC01E60FF71F9C0122503109E217F307A8
:1015000008F4ACC0D9010D911C911197061717076B
:10151000B0F00530110508F49FC0C8010497861784
:10152000970708F499C002501109061B170B019385
:1015300011936D937C93CF010E94D3098DC05B0101
:10154000A01AB10A4C01800E911EA0911103B09116
:10155000120340E050E0E12CF12C109709F44AC04E
:10156000A815B905D1F56D907C901197630182E0C3
:10157000C80ED11CCA14DB0480F1A3014A195B090F
:101580006A0182E0C80ED11C1296BC901297139685
:10159000AC91B5E0CB16D10440F0B282A383518365
:1015A0004083D9016D937C930AC00E5F1F4FC30126
:1015B000800F911FF90191838083EB2DFA2FE114A5
:1015C000F10431F0D7011396FC93EE93129744C0C7
:1015D000F0931203E09311033FC08D919C911197FA
:1015E0004817590708F4AC017D0112960D90BC9183
:1015F000A02DB3CF80910F0390911003881599050A
:10160000E1F446175707C8F4809100019091010159
:10161000009741F48DB79EB74091040150910501A8
:10162000841B950BE817F907C8F4F0931003E093B7
:101630000F03F901718360830FC0CB010E943E0943
:101640007C01009759F0A801BE010E943A0BCE011F
:101650000E94D309C70104C0CE0102C080E090E01F
:10166000CDB7DEB7EEE00C94F90881E090E0F89495
:101670000C94550BFB01DC0102C001900D9241500E
:101680005040D8F70895FC018191861721F08823F6
:10169000D9F7992708953197CF010895FB01DC010F
:1016A00001900D920020E1F7089510E0C2E6D0E02D
:1016B00004C0FE010E9438092196C336D107C9F73C
:0416C000F894FFCFCC
:1016C40000001303800000000000C60133015E0126
:1016D4000D028F016D0181010000000052023301EF
:1016E400F6025102A602BE02390241542B5253544F
:1016F4000D0A0041542B43495053544152543D2246
:10170400544350222C223137322E31362E31393285
:101714002E313438222C38300D0A006573703D00A8
:10172400504F5354202F455350736D617274486F5A
:101734007573652F455350736D617274486F75737B
:10174400652E70687020485454502F312E310D0A84
:10175400486F73743A203137322E31362E31393294
:101764002E3134380D0A436F6E74656E742D5479BE
:1017740070653A206170706C69636174696F6E2F73
:10178400782D7777772D666F726D2D75726C656E17
:10179400636F6465640D0A436F6E74656E742D4CDB
:1017A400656E6774683A20000D0A0D0A0041542BD7
:0A17B40043495053454E443D0000E8
:00000001FF
