:100000000C9463000C948B000C948B000C94D7041C
:100010000C94D7040C94D7040C948B000C948B0094
:100020000C948B000C948B000C948B000C948B0024
:100030000C948B000C948B000C948B000C948B0014
:100040000C9435040C948B000C94A5040C947F0440
:100050000C948B000C948B000C948B000C948B00F4
:100060000C948B000C948B0000000008000201002F
:100070000003040700000000000000000000000072
:10008000250028002B0000000000240027002A0083
:1000900000000000230026002900040404040404D6
:1000A0000404020202020202030303030303010227
:1000B00004081020408001020408102001020408F6
:1000C000102051053F0811241FBECFEFD8E0DEBF3E
:1000D000CDBF23E0AAEFB1E001C01D92A131B2076C
:1000E000E1F711E0A0E0B1E0E0E0F6E102C0059048
:1000F0000D92AA3FB107D9F710E0C2E6D0E004C0E4
:100100002197FE010E94D608C136D107C9F70E9487
:1001100038060C94F30A0C94000090E0FC01E859B6
:10012000FF4F3491FC01E255FF4F2491FC01E6564C
:10013000FF4FE491EE2309F43BC0332339F1333010
:1001400091F038F43130A9F0323001F584B58F7D6B
:1001500012C0373091F03830A1F03430B9F48091CA
:1001600080008F7D03C0809180008F778093800016
:100170000DC084B58F7784BD09C08091B0008F77A2
:1001800003C08091B0008F7D8093B000F0E0EE0F4F
:10019000FF1FE458FF4FA591B4918FB7F894EC91ED
:1001A000611103C020952E2301C02E2B2C938FBFED
:1001B0000895CF92DF92EF92FF920F931F93CF9308
:1001C000DF936C017A018B01C0E0D0E0CE15DF0532
:1001D00089F0D8016D918D01D601ED91FC910190CE
:1001E000F081E02DC6010995892B11F47E0102C032
:1001F0002196ECCFC701DF91CF911F910F91FF9016
:10020000EF90DF90CF900895FC01538D448D252F02
:1002100030E0842F90E0821B930B541710F0CF96A0
:10022000089501970895FC01918D828D981761F0D2
:10023000828DDF01A80FB11D5D968C91928D9F5F1D
:100240009F73928F90E008958FEF9FEF0895FC01C8
:10025000918D828D981731F0828DE80FF11D858D7B
:1002600090E008958FEF9FEF0895FC01918D228D0E
:10027000892F90E0805C9F4F821B91098F73992793
:1002800008958BE492E00E94350121E0892B09F466
:1002900020E0822F0895FC01848DDF01A80FB11D9D
:1002A000A35ABF4F2C91848D90E001968F739927AC
:1002B000848FA689B7892C93A089B1898C91806499
:1002C0008C93938D848D981306C00288F389E02D5A
:1002D00080818F7D80830895EF92FF920F931F930B
:1002E000CF93DF93EC0181E0888F9B8D8C8D9813E9
:1002F00005C0E889F989808185FD24C0F62E0B8D23
:1003000010E00F5F1F4F0F731127E02E8C8DE81246
:100310000CC00FB607FCFACFE889F989808185FF08
:10032000F5CFCE010E944B01F1CF8B8DFE01E80F7E
:10033000F11DE35AFF4FF0820B8FEA89FB89808120
:10034000806207C0EE89FF896083E889F98980812E
:100350008064808381E090E0DF91CF911F910F91C5
:10036000FF90EF900895CF93DF93EC01888D882361
:10037000C9F0EA89FB89808185FD05C0A889B98912
:100380008C9186FD0FC00FB607FCF5CF808185FFED
:10039000F2CFA889B9898C9185FFEDCFCE010E945B
:1003A0004B01E7CFDF91CF91089580E090E0892B5A
:1003B00029F00E94410181110C94000008952091C0
:1003C0003C0230913D022817390771F490913A02AE
:1003D00080913B02981741F0E0913A02F0E0E6503C
:1003E000FE4F808190E008958FEF9FEF089508956C
:1003F0001F93CF93DF93DC015C962D913C915D9729
:100400002115310539F481E090E013969C938E9389
:1004100012973DC05196ED91FC91529750969C9148
:100420005097892F80951FB75E964C915E9741FB40
:10043000772770F941FD6095F8944081772311F09A
:10044000492B01C048234083E9012197F1F748E097
:10045000508160FF02C0592B01C058235083E9012D
:100460002197F1F76695415099F7772321F0908114
:100470008923808303C08081982B90831FBF5C9663
:100480008D919C915D970197F1F721E030E0C901D2
:10049000DF91CF911F91089520913C0230913D0250
:1004A0002817390771F480913B0220913A0290E0BD
:1004B000805C9F4F821B910960E470E00E94AE084F
:1004C000089580E090E0089520913C0230913D0233
:1004D00028173907B9F490913A0280913B02981796
:1004E00089F0E0913A02F0E0E650FE4F80812091E1
:1004F0003A0230E02F5F3F4F2F73332720933A02A9
:1005000090E008958FEF9FEF0895E0913C02F09105
:100510003D02E817F90769F4A389B4899C9185899C
:10052000809589238C9310923D0210923C0281E0C9
:10053000089580E00895089580E090E00895FC011A
:10054000808191810C9471090F931F93CF93DF9356
:10055000EC0188819981009729F02A813B81261737
:10056000370788F48B016F5F7F4F0E94090A00975D
:1005700061F0998388831B830A832C813D81232B1F
:1005800011F4FC01108281E001C080E0DF91CF9185
:100590001F910F910895EF92FF920F931F93CF93A6
:1005A000DF93FC01248135816115710511F480E030
:1005B00019C041155105A9F07B01EC018A01020F18
:1005C000131FB8010E94A402882389F3288139816E
:1005D0008C819D81B701820F931F0E94EC0A1D83BD
:1005E0000C8381E0DF91CF911F910F91FF90EF90ED
:1005F0000895EF92FF920F931F93CF93DF93CDB7A0
:10060000DEB727970FB6F894DEBF0FBECDBF7C01D3
:10061000CB014AE08E010F5F1F4FB8010E944D08C9
:10062000F80101900020E9F73197AF01401B510B11
:10063000B801C7010E94CB0227960FB6F894DEBF1F
:100640000FBECDBFDF91CF911F910F91FF90EF9023
:100650000895CF93DF9300D0CDB7DEB769831A82B8
:1006600041E050E0BE016F5F7F4F0E94CB020F90D0
:100670000F90DF91CF9108956115710551F0FB0145
:1006800001900020E9F73197AF01461B570B0C94FE
:10069000CB0280E00895EF92FF920F931F93CF93C8
:1006A000DF93EC017B018A01BA010E94A402288138
:1006B000398181110DC02115310519F0C9010E9440
:1006C0007109198218821D821C821B821A8206C03F
:1006D0001D830C83B701C9010E94EC0ACE01DF9192
:1006E000CF911F910F91FF90EF900895FB01DC01D6
:1006F00011961C921E9213961C921E92129715969A
:100700001C921E9214978617970749F06081718199
:100710006115710521F0448155810C944B030895B6
:10072000FC011182108213821282158214826115DB
:10073000710551F0FB0101900020E9F73197AF01FD
:10074000461B570B0C944B030895CF92DF92EF9208
:10075000FF92CF93DF93EC017B016A016CEE71E0B5
:100760000E949003F70144815581608171818EEE72
:1007700092E00E94D9002FB7F894809143029091A3
:100780004402A0914502B09146022FBF0D2C000CEF
:10079000EE08FF08C80ED91EEA1EFB1E2FB7F894FC
:1007A0008091430290914402A0914502B09146028B
:1007B0002FBF8C159D05AE05BF0578F48EEE92E037
:1007C0000E944C02892B51F38EEE92E00E9464024B
:1007D000682FCE010E942903F1CFEC80FD80E11447
:1007E000F10469F0C880D9806AE270E0C6010E9415
:1007F000E10A009721F09C012C193D0902C02FEF5E
:100800003FEF30934A0220934902121613061CF55B
:10081000C90101968E159F0550F4488159814115F3
:10082000510529F0FA01E80FF91F808101C080E02D
:10083000809348022E5F3F4F2E153F0548F4888174
:100840009981009729F0FC01E20FF31F808101C01C
:1008500080E080934702CE01DF91CF91FF90EF902F
:10086000DF90CF9008950E94D30A1F920F920FB687
:100870000F9211242F933F938F939F93AF93BF9326
:100880008091430290914402A0914502B0914602AA
:100890003091420223E0230F2D3720F40196A11D51
:1008A000B11D05C026E8230F0296A11DB11D20939E
:1008B00042028093430290934402A0934502B09376
:1008C000460280913E0290913F02A0914002B09179
:1008D00041020196A11DB11D80933E0290933F02FB
:1008E000A0934002B0934102BF91AF919F918F912D
:1008F0003F912F910F900FBE0F901F9018951F9250
:100900000F920FB60F9211242F933F934F935F9343
:100910006F937F938F939F93AF93BF93EF93FF93C7
:100920008BE492E00E944B01FF91EF91BF91AF9158
:100930009F918F917F916F915F914F913F912F91F7
:100940000F900FBE0F901F9018951F920F920FB629
:100950000F9211242F938F939F93EF93FF93E09126
:100960005B02F0915C028081E0916102F091620291
:1009700082FD12C09081809164028F5F8F732091FD
:100980006502821751F0E0916402F0E0E55BFD4FF3
:10099000958F8093640201C08081FF91EF919F91B8
:1009A0008F912F910F900FBE0F901F9018951F924F
:1009B0000F920FB60F9211242F933F934F935F9393
:1009C0006F937F938F939F93AF93BF93EF93FF9317
:1009D000E0913C02F0913D02309709F451C0968DB0
:1009E000A685B785858591FF04C09C91892329F44C
:1009F00047C09C91892309F043C0A389B4899C9185
:100A00008589809589238C93868997890197F1F749
:100A1000608D718DA685B785558538E020E0CB01C6
:100A20000197F1F7822F90E095958795282F4C91AB
:100A3000452309F02068315091F7868D81FD20957E
:100A400080913B0290E001968F73992730913A0292
:100A5000381749F0A0913B02B0E0A650BE4F2C934E
:100A600080933B0203C0868D8160868F828D938D3B
:100A70000197F1F7A389B4899C918589892B8C937F
:100A8000FF91EF91BF91AF919F918F917F916F9166
:100A90005F914F913F912F910F900FBE0F901F903C
:100AA0001895CF93DF9310924E0210924D0288EE6C
:100AB00093E0A0E0B0E080934F0290935002A093A7
:100AC0005102B09352022AE031E030934C0220935D
:100AD0004B0225EC30E0309358022093570224EC6F
:100AE00030E030935A022093590220EC30E03093EA
:100AF0005C0220935B0221EC30E030935E02209395
:100B00005D0222EC30E03093600220935F0226EC1D
:100B100030E03093620220936102109264021092DE
:100B2000650210926602109267021092F102109212
:100B3000F0028093F2029093F302A093F402B09338
:100B4000F5028CE191E09093EF028093EE02109217
:100B500005031092040310920703109206031092EB
:100B600009031092080310920B0310920A0360917C
:100B70000C036E7F6D7F60930C036695617081E05E
:100B8000682782E00E948D00E0EBF0E02491ECE920
:100B9000F0E08491882399F090E0880F991FFC0180
:100BA000EA57FF4FA591B491FC01E458FF4F85919E
:100BB00094918FB7F894EC91E22BEC938FBFE0EB1C
:100BC000F0E0E491E093FE02ECE9F0E0E491F0E083
:100BD000EE0FFF1FE458FF4F85919491909300030F
:100BE0008093FF02E1EBF0E02491EDE9F0E08491E5
:100BF0008823C1F090E0880F991FFC01EA57FF4F4E
:100C0000C591D491FC01E458FF4FA591B4919FB7D1
:100C1000F8948881E22FE0958E2388838C91E823D5
:100C2000EC939FBF80910C0381FD04C061E083E0E1
:100C30000E948D0083E08093FA02E1EBF0E0E49102
:100C4000E093FB02EDE9F0E0E491F0E0EE0FFF1F2E
:100C5000E057FF4F859194919093FD028093FC02A1
:100C60006CEE71E088EE92E0DF91CF910C949003EE
:100C7000CF93DF93CDB7DEB7A4970FB6F894DEBF5E
:100C80000FBECDBF789484B5826084BD84B5816089
:100C900084BD85B5826085BD85B5816085BD809147
:100CA0006E00816080936E001092810080918100BF
:100CB00082608093810080918100816080938100B7
:100CC000809180008160809380008091B100846079
:100CD0008093B1008091B00081608093B0008091DA
:100CE0007A00846080937A0080917A008260809399
:100CF0007A0080917A00816080937A0080917A00F6
:100D0000806880937A001092C100E0915B02F091BC
:100D10005C0282E08083E0915702F09158021082D9
:100D2000E0915902F0915A028FEC80831092630295
:100D3000E0915F02F091600286E08083E0915D02C5
:100D4000F0915E02808180618083E0915D02F0918C
:100D50005E02808188608083E0915D02F0915E0296
:100D6000808180688083E0915D02F0915E028081E5
:100D70008F7D80831092090310920803109207035D
:100D80001092060310920503109204038DE991E07E
:100D900090930B0380930A039091FA02963108F026
:100DA00057C02DEB30E030930503209304032BE96B
:100DB00031E030930703209306032CE231E03093B7
:100DC00009032093080320916800983050F031E027
:100DD0009E3008F430E081E001C0880F3A95EAF7D0
:100DE00001C084E0822B80936800983038F09E30F8
:100DF00040F0963148F020E030E008C02DE630E0C9
:100E000005C02BE630E002C02CE630E03093020350
:100E100020930103983030F481E001C0880F9A9547
:100E2000EAF70EC0292F30E09E3018F4285031091F
:100E300002C02E50310981E001C0880F2A95EAF7DF
:100E40008093030380910A0390910B030197F1F7BC
:100E50008091080390910903892B21F180913C0234
:100E600090913D0222E08E3E9207E1F0009711F052
:100E70000E94850280910C038E7F80930C03109258
:100E80003B0210923A028EEE92E090933D028093E4
:100E90003C02E0910103F0910203908180910303F1
:100EA000892B80836AE271E0CE0107960E9490034D
:100EB00040ED57E0BE01695F7F4FCE0101960E9471
:100EC000A503CE0101960E949F02CE0107960E94C3
:100ED0009F028EEE92E00E944C02892B09F096C090
:100EE00063E371E0CE014F960E9490036BE571E0E1
:100EF000CE0149960E94900360E671E0CE014396D0
:100F00000E9490036D8D7E8DCE0143960E94F90262
:100F100068EE71E0CE0143960E943C034D8D5E8DDC
:100F2000698D7A8DCE0143960E94CB0268EE71E006
:100F3000CE0143960E943C036DEE71E0CE010D960A
:100F40000E9490036F89788DCE010D960E94F90260
:100F50006AEE71E0CE010D960E943C03BE01615E17
:100F60007F4FCE0101960E9476034AE050E0BE0119
:100F70006F5F7F4FCE0107960E94A503CE010796B3
:100F80000E949F02CE0101960E949F02BE01635FF4
:100F90007F4FCE0101960E9476034AE050E0BE01E9
:100FA0006F5F7F4FCE0107960E94A503CE01079683
:100FB0000E949F02CE0101960E949F02BE016D5EBB
:100FC0007F4FCE0101960E94760344EF51E0BE01AF
:100FD0006F5F7F4FCE0107960E94A503CE01079653
:100FE0000E949F02CE0101960E949F02CE010D96A3
:100FF0000E949F02CE0143960E949F02CE01499615
:101000000E949F02CE014F960E949F026CEE71E0FB
:10101000CE0101960E9490036AE2CE0101960E94E1
:10102000290360914702623008F062E3CE01019625
:101030000E94290360914802623008F062E3CE0109
:1010400001960E94290360E4CE0101960E942903C3
:101050004D815E8169817A818BE492E00E94D900A2
:1010600042E050E06AEE71E08BE492E00E94D90029
:10107000CE0101960E949F020E94D5012ACF88EEE0
:1010800092E00E949F028CE191E09093EF028093A6
:10109000EE028EEE92E00C948502BB27FB015527F1
:1010A000AA27880F991FAA1FA41710F0A41B8395C5
:1010B0005051B9F7A05DAA3308F0A95DA19300973C
:1010C00079F7B111B1931192CB010C946708DC014F
:1010D000FC01672F71917723E1F7329704C07C916F
:1010E0006D9370836291AE17BF07C8F308952F9276
:1010F0003F924F925F926F927F928F929F92AF92A8
:10110000BF92CF92DF92EF92FF920F931F93CF93F4
:10111000DF93CDB7DEB7CA1BDB0B0FB6F894DEBF8B
:101120000FBECDBF09942A88398848885F846E84B1
:101130007D848C849B84AA84B984C884DF80EE80FB
:10114000FD800C811B81AA81B981CE0FD11D0FB604
:10115000F894DEBF0FBECDBFED01089597FB072EBB
:1011600016F4009407D077FD09D00E94C20807FC4E
:1011700005D03EF4909581959F4F089570956195A7
:101180007F4F0895AA1BBB1B51E107C0AA1FBB1FBD
:10119000A617B70710F0A61BB70B881F991F5A9503
:1011A000A9F780959095BC01CD010895EE0FFF1F22
:1011B0000590F491E02D0994CF93DF93823091054F
:1011C00010F482E090E0E0910F03F091100320E032
:1011D00030E0C0E0D0E0309711F1408151814817F4
:1011E0005907C0F04817590761F48281938120970D
:1011F00019F09B838A832BC09093100380930F0375
:1012000026C02115310519F04217530718F49A0129
:10121000BE01DF01EF010280F381E02DDCCF21155B
:10122000310509F1281B390B2430310590F4129651
:101230008D919C9113976115710521F0FB019383AA
:10124000828304C09093100380930F03FD013296B4
:1012500044C0FD01E20FF31F8193919322503109A5
:101260002D933C933AC020910D0330910E03232B14
:1012700041F4209102013091030130930E03209339
:101280000D0320910001309101012115310541F438
:101290002DB73EB74091040150910501241B350B39
:1012A000E0910D03F0910E03E217F307A0F42E1B5B
:1012B0003F0B2817390778F0AC014E5F5F4F2417BA
:1012C000350748F04E0F5F1F50930E0340930D03F8
:1012D0008193919302C0E0E0F0E0CF01DF91CF91E4
:1012E00008950F931F93CF93DF93009709F48CC059
:1012F000FC0132971382128200910F0310911003A8
:101300000115110581F420813181820F931F2091F5
:101310000D0330910E032817390779F5F0930E036A
:10132000E0930D0371C0D80140E050E0AE17BF0755
:1013300050F412962D913C911397AD012115310572
:1013400009F1D901F3CF9D01DA0133832283608152
:101350007181860F971F8217930769F4EC0128812A
:101360003981260F371F2E5F3F4F318320838A81BB
:101370009B8193838283452B29F4F0931003E093A0
:101380000F0342C01396FC93EE931297ED0149911F
:1013900059919E01240F351FE217F30771F48081E4
:1013A0009181840F951F029611969C938E93828152
:1013B000938113969C938E931297E0E0F0E0D8010E
:1013C00012968D919C911397009719F0F8018C015A
:1013D000F6CF8D919C9198012E5F3F4F820F931F06
:1013E00020910D0330910E032817390769F43097C7
:1013F00029F41092100310920F0302C0138212827C
:1014000010930E0300930D03DF91CF911F910F9165
:101410000895A0E0B0E0EFE0FAE00C947B08EC0166
:10142000009721F4CB010E94DC08B8C0FC01E60F54
:10143000F71F9C0122503109E217F30708F4ACC0F2
:10144000D9010D911C91119706171707B0F00530BF
:10145000110508F49FC0C80104978617970708F480
:1014600099C002501109061B170B019311936D933C
:101470007C93CF010E9471098DC05B01A01AB10A53
:101480004C01800E911EA0910F03B091100340E01B
:1014900050E0E12CF12C109709F44AC0A815B905C9
:1014A000D1F56D907C901197630182E0C80ED11C3C
:1014B000CA14DB0480F1A3014A195B096A0182E0C6
:1014C000C80ED11C1296BC9012971396AC91B5E041
:1014D000CB16D10440F0B282A38351834083D9015B
:1014E0006D937C930AC00E5F1F4FC301800F911F45
:1014F000F90191838083EB2DFA2FE114F10431F08F
:10150000D7011396FC93EE93129744C0F093100307
:10151000E0930F033FC08D919C9111974817590795
:1015200008F4AC017D0112960D90BC91A02DB3CFB3
:1015300080910D0390910E0388159905E1F44617EB
:101540005707C8F48091000190910101009741F480
:101550008DB79EB74091040150910501841B950BF6
:10156000E817F907C8F4F0930E03E0930D03F901AF
:10157000718360830FC0CB010E94DC087C0100975F
:1015800059F0A801BE010E94D80ACE010E9471093B
:10159000C70104C0CE0102C080E090E0CDB7DEB745
:1015A000EEE00C94970881E090E0F8940C94F30A34
:1015B000FB01DC0102C001900D9241505040D8F770
:1015C0000895FC018191861721F08823D9F7992786
:1015D00008953197CF010895FB01DC0101900D9230
:1015E0000020E1F7089510E0C2E6D0E004C0FE015B
:1015F0000E94D6082196C336D107C9F7F894FFCFC9
:10160000000011038000000000006C01D9000401FB
:10161000B30135011301270100000000F801D900D2
:101620009C02F7014C026402DF0141542B525354D7
:101630000D0A0041542B43495053544152543D220A
:10164000544350222C223137322E31362E3139324A
:101650002E313438222C38300D0A006573703D006D
:10166000504F5354202F455350736D617274486F1F
:101670007573652F455350736D617274486F757340
:10168000652E70687020485454502F312E310D0A49
:10169000486F73743A203137322E31362E31393259
:1016A0002E3134380D0A436F6E74656E742D547983
:1016B00070653A206170706C69636174696F6E2F38
:1016C000782D7777772D666F726D2D75726C656EDC
:1016D000636F6465640D0A436F6E74656E742D4CA0
:1016E000656E6774683A20000D0A0D0A0041542B9C
:0A16F00043495053454E443D0000AD
:00000001FF
