:100000000C9463000C948B000C948B000C942A05C8
:100010000C942A050C942A050C948B000C948B00EC
:100020000C948B000C948B000C948B000C948B0024
:100030000C948B000C948B000C948B000C948B0014
:100040000C9488040C948B000C94F8040C94D20447
:100050000C948B000C948B000C948B000C948B00F4
:100060000C948B000C948B000000000024002700EF
:100070002A0000000008000201000003040700003D
:1000800000000000000000000000250028002B00F8
:1000900000000000230026002900040404040404D6
:1000A0000404020202020202030303030303010227
:1000B00004081020408001020408102001020408F6
:1000C0001020A4058D0811241FBECFEFD8E0DEBF9D
:1000D000CDBF23E0A8EFB1E001C01D92A930B20767
:1000E000E1F711E0A0E0B1E0E4E9F6E102C005903B
:1000F0000D92A83FB107D9F710E0C2E6D0E004C0E6
:100100002197FE010E942009C136D107C9F70E943C
:100110004F060C943D0B0C940000833081F028F4C2
:10012000813099F08230A1F008958730A9F08830AD
:10013000B9F08430D1F4809180008F7D03C080912C
:1001400080008F7780938000089584B58F7702C0F8
:1001500084B58F7D84BD08958091B0008F7703C0F2
:100160008091B0008F7D8093B00008951F93CF934E
:10017000DF93282F30E0F901EE58FF4F8491F90109
:10018000E255FF4FD491F901E656FF4FC491CC23BD
:10019000C9F0162F81110E948D00EC2FF0E0EE0FB8
:1001A000FF1FEA57FF4FA591B4918FB7F894111133
:1001B00005C09C91ED2FE095E92302C0EC91ED2B59
:1001C000EC938FBFDF91CF911F910895CF93DF9371
:1001D00090E0FC01E255FF4F2491FC01E656FF4FF1
:1001E0008491882361F190E0880F991FFC01E85900
:1001F000FF4FC591D491FC01EA57FF4FA591B491EF
:10020000611109C09FB7F894888120958223888363
:10021000EC912E230BC0623061F49FB7F8943881C3
:10022000822F809583238883EC912E2B2C939FBF64
:1002300006C08FB7F894E8812E2B28838FBFDF91FB
:10024000CF910895FC01248135816217730748F42A
:1002500080819181009729F0FC01E60FF71F8081D2
:10026000089580E00895CF92DF92EF92FF920F936E
:100270001F93CF93DF936C017A018B01C0E0D0E034
:10028000CE15DF0589F0D8016D918D01D601ED9174
:10029000FC910190F081E02DC6010995892B11F4A4
:1002A0007E0102C02196ECCFC701DF91CF911F9153
:1002B0000F91FF90EF90DF90CF900895FC01538D48
:1002C000448D252F30E0842F90E0821B930B541730
:1002D00010F0CF96089501970895FC01918D828DBD
:1002E000981761F0828DDF01A80FB11D5D968C918A
:1002F000928D9F5F9F73928F90E008958FEF9FEF95
:100300000895FC01918D828D981731F0828DE80F50
:10031000F11D858D90E008958FEF9FEF0895FC010A
:10032000918D228D892F90E0805C9F4F821B9109D7
:100330008F739927089589E492E00E948F0121E04C
:10034000892B09F420E0822F0895FC01848DDF01C0
:10035000A80FB11DA35ABF4F2C91848D90E0019638
:100360008F739927848FA689B7892C93A089B18927
:100370008C9180648C93938D848D981306C0028831
:10038000F389E02D80818F7D80830895EF92FF9225
:100390000F931F93CF93DF93EC0181E0888F9B8DA8
:1003A0008C8D981305C0E889F989808185FD24C06A
:1003B000F62E0B8D10E00F5F1F4F0F731127E02EED
:1003C0008C8DE8120CC00FB607FCFACFE889F989CA
:1003D000808185FFF5CFCE010E94A501F1CF8B8DE5
:1003E000FE01E80FF11DE35AFF4FF0820B8FEA89FF
:1003F000FB898081806207C0EE89FF896083E8897C
:10040000F98980818064808381E090E0DF91CF91E1
:100410001F910F91FF90EF900895CF93DF93EC0120
:10042000888D8823C9F0EA89FB89808185FD05C014
:10043000A889B9898C9186FD0FC00FB607FCF5CF4E
:10044000808185FFF2CFA889B9898C9185FFEDCF96
:10045000CE010E94A501E7CFDF91CF91089580E002
:1004600090E0892B29F00E949B0181110C940000DF
:10047000089520913A0230913B022817390771F410
:100480009091380280913902981741F0E09138023A
:10049000F0E0E850FE4F808190E008958FEF9FEFED
:1004A000089508951F93CF93DF93DC015C962D91FF
:1004B0003C915D972115310539F481E090E0139668
:1004C0009C938E9312973DC05196ED91FC9152975B
:1004D00050969C915097892F80951FB75E964C91AE
:1004E0005E9741FB772770F941FD6095F894408154
:1004F000772311F0492B01C048234083E90121975C
:10050000F1F748E0508160FF02C0592B01C0582329
:100510005083E9012197F1F76695415099F77723C8
:1005200021F090818923808303C08081982B908360
:100530001FBF5C968D919C915D970197F1F721E02B
:1005400030E0C901DF91CF911F91089520913A02C7
:1005500030913B022817390771F4809139022091BC
:10056000380290E0805C9F4F821B910960E470E04C
:100570000E94F808089580E090E0089520913A02E2
:1005800030913B0228173907B9F4909138028091D5
:100590003902981789F0E0913802F0E0E850FE4FF8
:1005A00080812091380230E02F5F3F4F2F73332737
:1005B0002093380290E008958FEF9FEF0895E09127
:1005C0003A02F0913B02E817F90769F4A389B4896C
:1005D0009C918589809589238C9310923B0210927F
:1005E0003A0281E0089580E00895089580E090E067
:1005F0000895FC01808191810C94BB090F931F9396
:10060000CF93DF93EC0188819981009729F02A81AB
:100610003B812617370788F48B016F5F7F4F0E945D
:10062000530A009761F0998388831B830A832C8186
:100630003D81232B11F4FC01108281E001C080E098
:10064000DF91CF911F910F910895EF92FF920F9339
:100650001F93CF93DF93FC012481358161157105D0
:1006600011F480E019C041155105A9F07B01EC019E
:100670008A01020F131FB8010E94FE02882389F32A
:10068000288139818C819D81B701820F931F0E943F
:10069000360B1D830C8381E0DF91CF911F910F9169
:1006A000FF90EF900895EF92FF920F931F93CF93D7
:1006B000DF93CDB7DEB727970FB6F894DEBF0FBE36
:1006C000CDBF7C01CB014AE08E010F5F1F4FB80107
:1006D0000E949708F80101900020E9F73197AF01D7
:1006E000401B510BB801C7010E94250327960FB686
:1006F000F894DEBF0FBECDBFDF91CF911F910F9158
:10070000FF90EF900895CF93DF9300D0CDB7DEB781
:1007100069831A8241E050E0BE016F5F7F4F0E9403
:1007200025030F900F90DF91CF910895611571050A
:1007300051F0FB0101900020E9F73197AF01461B12
:10074000570B0C94250380E00895EF92FF920F93CE
:100750001F93CF93DF93EC017B018A01BA010E94C2
:10076000FE022881398181110DC02115310519F052
:10077000C9010E94BB09198218821D821C821B823A
:100780001A8206C01D830C83B701C9010E94360B73
:10079000CE01DF91CF911F910F91FF90EF900895BF
:1007A000FB01DC0111961C921E9213961C921E9264
:1007B000129715961C921E9214978617970749F068
:1007C000608171816115710521F0448155810C941E
:1007D000A5030895FC0111821082138212821582F2
:1007E00014826115710551F0FB0101900020E9F7B9
:1007F0003197AF01461B570B0C94A5030895CF9278
:10080000DF92EF92FF920F931F93CF93DF938C01B0
:10081000EB016A016AEE71E00E94EA034C815D819E
:100820006881798186EE92E00E9433012FB7F894B7
:100830008091410290914202A0914302B091440202
:100840002FBF0D2C000CEE08FF08C80ED91EEA1EA3
:10085000FB1E2FB7F8948091410290914202A09123
:100860004302B09144022FBF8C159D05AE05BF0514
:1008700078F486EE92E00E94A602892B51F386EE70
:1008800092E00E94BE02682FC8010E948303F1CF4C
:10089000F80184819581892B79F1E080F1806AE209
:1008A00070E0C7010E942B0B009731F1EC01CE19CB
:1008B000DF091C161D0604F5BE016F5F7F4FC801DE
:1008C0000E94220180934802BE016E5F7F4FC801E3
:1008D0000E94220180934702BE016D5F7F4FC801D5
:1008E0000E94220180934602BE016C5F7F4FC801C7
:1008F0000E94220180934502C801DF91CF911F9190
:100900000F91FF90EF90DF90CF9008950E941D0B04
:100910001F920F920FB60F9211242F933F938F9334
:100920009F93AF93BF938091410290914202A09117
:100930004302B09144023091400223E0230F2D374F
:1009400020F40196A11DB11D05C026E8230F0296D3
:10095000A11DB11D20934002809341029093420259
:10096000A0934302B093440280913C0290913D02D7
:10097000A0913E02B0913F020196A11DB11D80934E
:100980003C0290933D02A0933E02B0933F02BF9180
:10099000AF919F918F913F912F910F900FBE0F902C
:1009A0001F9018951F920F920FB60F9211242F933C
:1009B0003F934F935F936F937F938F939F93AF93E7
:1009C000BF93EF93FF9389E492E00E94A501FF910A
:1009D000EF91BF91AF919F918F917F916F915F91B7
:1009E0004F913F912F910F900FBE0F901F90189530
:1009F0001F920F920FB60F9211242F938F939F93F4
:100A0000EF93FF93E0915902F0915A028081E091B7
:100A10005F02F091600282FD12C0908180916202BB
:100A20008F5F8F7320916302821751F0E091620211
:100A3000F0E0E75BFD4F958F8093620201C08081FB
:100A4000FF91EF919F918F912F910F900FBE0F907B
:100A50001F9018951F920F920FB60F9211242F938B
:100A60003F934F935F936F937F938F939F93AF9336
:100A7000BF93EF93FF93E0913A02F0913B023097DE
:100A800009F451C0968DA685B785858591FF04C070
:100A90009C91892329F447C09C91892309F043C084
:100AA000A389B4899C918589809589238C938689B3
:100AB00097890197F1F7608D718DA685B78555856A
:100AC00038E020E0CB010197F1F7822F90E0959577
:100AD0008795282F4C91452309F02068315091F7D4
:100AE000868D81FD20958091390290E001968F736B
:100AF000992730913802381749F0A0913902B0E0B7
:100B0000A850BE4F2C938093390203C0868D81601C
:100B1000868F828D938D0197F1F7A389B4899C917B
:100B20008589892B8C93FF91EF91BF91AF919F9114
:100B30008F917F916F915F914F913F912F910F9086
:100B40000FBE0F901F90189510924C0210924B02FE
:100B500088EE93E0A0E0B0E080934D0290934E02C7
:100B6000A0934F02B09350022AE031E030934A0242
:100B70002093490225EC30E0309356022093550231
:100B800024EC30E0309358022093570220EC30E000
:100B900030935A022093590221EC30E030935C02EA
:100BA00020935B0222EC30E030935E0220935D02E2
:100BB00026EC30E03093600220935F0210926202D4
:100BC0001092630210926402109265021092E90280
:100BD0001092E8028093EA029093EB02A093EC0259
:100BE000B093ED028CE191E09093E7028093E602EE
:100BF0001092FD021092FC021092FF021092FE026F
:100C0000109201031092000310920303109202034A
:100C1000609104036E7F6D7F60930403669561703D
:100C200081E0682782E00E94B60061E082E00E94D5
:100C3000E600E0EBF0E0E491E093F602ECE9F0E0AE
:100C4000E491F0E0EE0FFF1FEA57FF4F859194917A
:100C50009093F8028093F70260E083E00E94E60040
:100C60008091040381FD04C061E083E00E94B6002E
:100C700083E08093F202E1EBF0E0E491E093F30291
:100C8000EDE9F0E0E491F0E0EE0FFF1FE057FF4FD9
:100C9000859194919093F5028093F4020895CF93F7
:100CA000DF93CDB7DEB7A4970FB6F894DEBF0FBEC3
:100CB000CDBF789484B5826084BD84B5816084BDE5
:100CC00085B5826085BD85B5816085BD80916E00EA
:100CD000816080936E00109281008091810082601B
:100CE0008093810080918100816080938100809158
:100CF00080008160809380008091B1008460809347
:100D0000B1008091B00081608093B00080917A0042
:100D1000846080937A0080917A00826080937A0068
:100D200080917A00816080937A0080917A00806857
:100D300080937A001092C100E0915902F0915A021A
:100D400082E08083E0915502F09156021082E0919A
:100D50005702F09158028FEC808310926102E0916B
:100D60005D02F0915E0286E08083E0915B02F0918B
:100D70005C02808180618083E0915B02F0915C0283
:100D8000808188608083E0915B02F0915C028081C9
:100D900080688083E0915B02F0915C0280818F7DAE
:100DA000808310920103109200031092FF021092B0
:100DB000FE021092FD021092FC028DE991E09093E8
:100DC0000303809302039091F202963108F057C01A
:100DD0002DEB30E03093FD022093FC022BE931E053
:100DE0003093FF022093FE022CE231E030930103A6
:100DF0002093000320916800983050F031E09E303D
:100E000008F430E081E001C0880F3A95EAF701C0AC
:100E100084E0822B80936800983038F09E3040F058
:100E2000963148F020E030E008C02DE630E005C003
:100E30002BE630E002C02CE630E03093FA0220933B
:100E4000F902983030F481E001C0880F9A95EAF7F2
:100E50000EC0292F30E09E3018F42850310902C00E
:100E60002E50310981E001C0880F2A95EAF780935E
:100E7000FB0280910203909103030197F1F78091A7
:100E8000000390910103892B21F180913A02909106
:100E90003B0222E0863E9207E1F0009711F00E94AB
:100EA000DF02809104038E7F809304031092390245
:100EB0001092380286EE92E090933B0280933A02C1
:100EC000E091F902F091FA0290818091FB02892B66
:100ED00080836AE271E0CE0107960E94EA0340ED4A
:100EE00057E0BE01695F7F4FCE0101960E94FF036C
:100EF000CE0101960E94F902CE0107960E94F902E6
:100F000062E08CE00E94E6000EE710E03AEBE32E90
:100F100030E0F32E46EAC42E40E0D42E86EE92E076
:100F20000E94A602892B09F096C063E371E0CE010E
:100F30004F960E94EA036AE571E0CE0149960E944D
:100F4000EA036FE571E0CE0143960E94EA036D8DDE
:100F50007E8DCE0143960E94530366EE71E0CE0172
:100F600043960E9496034D8D5E8D698D7A8DCE01DC
:100F700043960E94250366EE71E0CE0143960E94DF
:100F800096036BEE71E0CE010D960E94EA036F8925
:100F9000788DCE010D960E94530368EE71E0CE016C
:100FA0000D960E949603BE01615E7F4FCE010196B1
:100FB0000E94D00344E150E0BE016F5F7F4FCE013D
:100FC00007960E94FF03CE0107960E94F902CE0108
:100FD00001960E94F902BE01635F7F4FCE01019628
:100FE0000E94D00344E150E0BE016F5F7F4FCE010D
:100FF00007960E94FF03CE0107960E94F902CE01D8
:1010000001960E94F902BE016D5E7F4FCE010196EE
:101010000E94D00344EF51E0BE016F5F7F4FCE01CD
:1010200007960E94FF03CE0107960E94F902CE01A7
:1010300001960E94F902CE010D960E94F902CE019E
:1010400043960E94F902CE0149960E94F902CE0110
:101050004F960E94F9026AEE71E0CE0101960E945D
:10106000EA036AE2CE0101960E948303609148027E
:1010700080ED860F823008F062E3CE0101960E9477
:1010800083036091470280ED860F823008F062E3AF
:10109000CE0101960E9483036091460280ED860F87
:1010A000823008F062E3CE0101960E9483036091D2
:1010B000450280ED860F823008F062E3CE01019692
:1010C0000E94830360E4CE0101960E9483034D8158
:1010D0005E8169817A8189E492E00E943301F8019E
:1010E0008491F701A490F601B490BB2079F08111AE
:1010F0000E948D008B2D90E0880F991F80579F4F85
:10110000FC01A591B4918C91A82249F7CE010196DA
:101110000E94F9020E942F0201CF8CE191E090938E
:10112000E7028093E60286EE92E00C94DF02BB2792
:10113000FB015527AA27880F991FAA1FA41710F093
:10114000A41B83955051B9F7A05DAA3308F0A95D9F
:10115000A193009779F7B111B1931192CB010C943F
:10116000B108DC01FC01672F71917723E1F7329719
:1011700004C07C916D9370836291AE17BF07C8F372
:1011800008952F923F924F925F926F927F928F922B
:101190009F92AF92BF92CF92DF92EF92FF920F9306
:1011A0001F93CF93DF93CDB7DEB7CA1BDB0B0FB610
:1011B000F894DEBF0FBECDBF09942A8839884888CD
:1011C0005F846E847D848C849B84AA84B984C88463
:1011D000DF80EE80FD800C811B81AA81B981CE0F5A
:1011E000D11D0FB6F894DEBF0FBECDBFED0108953F
:1011F00097FB072E16F4009407D077FD09D00E94C4
:101200000C0907FC05D03EF4909581959F4F0895F9
:10121000709561957F4F0895AA1BBB1B51E107C0D4
:10122000AA1FBB1FA617B70710F0A61BB70B881F76
:10123000991F5A95A9F780959095BC01CD01089505
:10124000EE0FFF1F0590F491E02D0994CF93DF93EB
:101250008230910510F482E090E0E0910703F09174
:10126000080320E030E0C0E0D0E0309711F1408189
:10127000518148175907C0F04817590761F4828116
:101280009381209719F09B838A832BC09093080346
:101290008093070326C02115310519F04217530723
:1012A00018F49A01BE01DF01EF010280F381E02D05
:1012B000DCCF2115310509F1281B390B243031050C
:1012C00090F412968D919C9113976115710521F000
:1012D000FB019383828304C09093080380930703E8
:1012E000FD01329644C0FD01E20FF31F81939193FB
:1012F000225031092D933C933AC02091050330913F
:101300000603232B41F42091020130910301309315
:10131000060320930503209100013091010121155E
:10132000310541F42DB73EB74091040150910501BC
:10133000241B350BE0910503F0910603E217F30738
:10134000A0F42E1B3F0B2817390778F0AC014E5F35
:101350005F4F2417350748F04E0F5F1F5093060369
:10136000409305038193919302C0E0E0F0E0CF0148
:10137000DF91CF9108950F931F93CF93DF93009741
:1013800009F48CC0FC01329713821282009107038A
:10139000109108030115110581F420813181820F1C
:1013A000931F20910503309106032817390779F51B
:1013B000F0930603E093050371C0D80140E050E0CC
:1013C000AE17BF0750F412962D913C911397AD01C3
:1013D0002115310509F1D901F3CF9D01DA013383DC
:1013E000228360817181860F971F8217930769F4AA
:1013F000EC0128813981260F371F2E5F3F4F318343
:1014000020838A819B8193838283452B29F4F093E7
:101410000803E093070342C01396FC93EE931297E0
:10142000ED01499159919E01240F351FE217F307F1
:1014300071F480819181840F951F029611969C937F
:101440008E938281938113969C938E931297E0E002
:10145000F0E0D80112968D919C911397009719F0A6
:10146000F8018C01F6CF8D919C9198012E5F3F4F32
:10147000820F931F20910503309106032817390727
:1014800069F4309729F4109208031092070302C000
:10149000138212821093060300930503DF91CF910C
:1014A0001F910F910895A0E0B0E0E9E5FAE00C94F7
:1014B000C508EC01009721F4CB010E942609B8C0B1
:1014C000FC01E60FF71F9C0122503109E217F307D8
:1014D00008F4ACC0D9010D911C911197061717079C
:1014E000B0F00530110508F49FC0C80104978617B5
:1014F000970708F499C002501109061B170B0193B6
:1015000011936D937C93CF010E94BB098DC05B0149
:10151000A01AB10A4C01800E911EA0910703B09150
:10152000080340E050E0E12CF12C109709F44AC088
:10153000A815B905D1F56D907C901197630182E0F3
:10154000C80ED11CCA14DB0480F1A3014A195B093F
:101550006A0182E0C80ED11C1296BC9012971396B5
:10156000AC91B5E0CB16D10440F0B282A383518395
:101570004083D9016D937C930AC00E5F1F4FC30156
:10158000800F911FF90191838083EB2DFA2FE114D5
:10159000F10431F0D7011396FC93EE93129744C0F7
:1015A000F0930803E09307033FC08D919C9111973E
:1015B0004817590708F4AC017D0112960D90BC91B3
:1015C000A02DB3CF8091050390910603881599054E
:1015D000E1F446175707C8F480910001909101018A
:1015E000009741F48DB79EB74091040150910501D9
:1015F000841B950BE817F907C8F4F0930603E093F2
:101600000503F901718360830FC0CB010E94260995
:101610007C01009759F0A801BE010E94220BCE0167
:101620000E94BB09C70104C0CE0102C080E090E067
:10163000CDB7DEB7EEE00C94E10881E090E0F894DD
:101640000C943D0BFB01DC0102C001900D92415056
:101650005040D8F70895FC018191861721F0882326
:10166000D9F7992708953197CF010895FB01DC013F
:1016700001900D920020E1F7089510E0C2E6D0E05D
:1016800004C0FE010E9420092196C336D107C9F784
:04169000F894FFCFFC
:1016940000000903800000000000C60133015E0160
:1016A4000D028F016D01810100000000520233011F
:1016B400F6025102A602BE02390241542B5253547F
:1016C4000D0A0041542B43495053544152543D2276
:1016D400544350222C223137322E31362E313932B6
:1016E4002E3539222C38300D0A006573703D0050B8
:1016F4004F5354202F455350736D617274486F7566
:1017040073652F455350736D617274486F757365BB
:101714002E70687020485454502F312E310D0A48D1
:101724006F73743A203137322E31362E3139322EDE
:1017340035390D0A436F6E74656E742D5479706576
:101744003A206170706C69636174696F6E2F782DD3
:101754007777772D666F726D2D75726C656E636F1A
:101764006465640D0A436F6E74656E742D4C656E0A
:101774006774683A20000D0A0D0A0041542B43494E
:081784005053454E443D0000A6
:00000001FF
