:100000000C9463000C948B000C948B000C941305DF
:100010000C9413050C9413050C948B000C948B001A
:100020000C948B000C948B000C948B000C948B0024
:100030000C948B000C948B000C948B000C948B0014
:100040000C9471040C948B000C94E1040C94BB048C
:100050000C948B000C948B000C948B000C948B00F4
:100060000C948B000C948B000000000024002700EF
:100070002A0000000008000201000003040700003D
:1000800000000000000000000000250028002B00F8
:1000900000000000230026002900040404040404D6
:1000A0000404020202020202030303030303010227
:1000B00004081020408001020408102001020408F6
:1000C00010208D054B0811241FBECFEFD8E0DEBFF6
:1000D000CDBF23E0ACEEB1E001C01D92A330B2076A
:1000E000E1F711E0A0E0B1E0E8E1F6E102C005903F
:1000F0000D92AC3EB107D9F710E0C2E6D0E004C0E3
:100100002197FE010E94E208C136D107C9F70E947B
:100110003D060C94FF0A0C94000090E0FC01EE58A0
:10012000FF4F3491FC01E255FF4F2491FC01E6564C
:10013000FF4FE491EE2309F43BC0332339F1333010
:1001400091F038F43130A9F0323001F584B58F7D6B
:1001500012C0373091F03830A1F03430B9F48091CA
:1001600080008F7D03C0809180008F778093800016
:100170000DC084B58F7784BD09C08091B0008F77A2
:1001800003C08091B0008F7D8093B000F0E0EE0F4F
:10019000FF1FEA57FF4FA591B4918FB7F894EC91E8
:1001A000611103C020952E2301C02E2B2C938FBFED
:1001B0000895CF93DF9390E0FC01E255FF4F249127
:1001C000FC01E656FF4F8491882361F190E0880F8F
:1001D000991FFC01E859FF4FC591D491FC01EA57E2
:1001E000FF4FA591B491611109C09FB7F894888120
:1001F000209582238883EC912E230BC0623061F41A
:100200009FB7F8943881822F809583238883EC915F
:100210002E2B2C939FBF06C08FB7F894E8812E2B0E
:1002200028838FBFDF91CF910895CF92DF92EF9215
:10023000FF920F931F93CF93DF936C017A018B0191
:10024000C0E0D0E0CE15DF0589F0D8016D918D01B9
:10025000D601ED91FC910190F081E02DC601099548
:10026000892B11F47E0102C02196ECCFC701DF91EA
:10027000CF911F910F91FF90EF90DF90CF90089555
:10028000FC01538D448D252F30E0842F90E0821B9C
:10029000930B541710F0CF96089501970895FC0121
:1002A000918D828D981761F0828DDF01A80FB11DAD
:1002B0005D968C91928D9F5F9F73928F90E00895D1
:1002C0008FEF9FEF0895FC01918D828D981731F08B
:1002D000828DE80FF11D858D90E008958FEF9FEFDF
:1002E0000895FC01918D228D892F90E0805C9F4FB5
:1002F000821B91098F73992708958DE392E00E94E4
:10030000710121E0892B09F420E0822F0895FC017E
:10031000848DDF01A80FB11DA35ABF4F2C91848D8E
:1003200090E001968F739927848FA689B7892C93C3
:10033000A089B1898C9180648C93938D848D98135E
:1003400006C00288F389E02D80818F7D8083089527
:10035000EF92FF920F931F93CF93DF93EC0181E015
:10036000888F9B8D8C8D981305C0E889F9898081D1
:1003700085FD24C0F62E0B8D10E00F5F1F4F0F730D
:100380001127E02E8C8DE8120CC00FB607FCFACFB7
:10039000E889F989808185FFF5CFCE010E94870128
:1003A000F1CF8B8DFE01E80FF11DE35AFF4FF08274
:1003B0000B8FEA89FB898081806207C0EE89FF8903
:1003C0006083E889F98980818064808381E090E09E
:1003D000DF91CF911F910F91FF90EF900895CF93F0
:1003E000DF93EC01888D8823C9F0EA89FB8980813D
:1003F00085FD05C0A889B9898C9186FD0FC00FB60F
:1004000007FCF5CF808185FFF2CFA889B9898C914F
:1004100085FFEDCFCE010E948701E7CFDF91CF911D
:10042000089580E090E0892B29F00E947D018111E0
:100430000C940000089520912E0230912F0228176D
:10044000390771F490912C0280912D02981741F098
:10045000E0912C02F0E0E451FE4F808190E008959D
:100460008FEF9FEF089508951F93CF93DF93DC01E3
:100470005C962D913C915D972115310539F481E011
:1004800090E013969C938E9312973DC05196ED91F8
:10049000FC91529750969C915097892F80951FB749
:1004A0005E964C915E9741FB772770F941FD609510
:1004B000F8944081772311F0492B01C048234083F1
:1004C000E9012197F1F748E0508160FF02C0592B04
:1004D00001C058235083E9012197F1F766954150F7
:1004E00099F7772321F090818923808303C080814D
:1004F000982B90831FBF5C968D919C915D9701977F
:10050000F1F721E030E0C901DF91CF911F9108950B
:1005100020912E0230912F022817390771F4809113
:100520002D0220912C0290E0805C9F4F821B91094C
:1005300060E470E00E94BA08089580E090E00895B9
:1005400020912E0230912F0228173907B9F490918B
:100550002C0280912D02981789F0E0912C02F0E096
:10056000E451FE4F808120912C0230E02F5F3F4FFD
:100570002F73332720932C0290E008958FEF9FEF85
:100580000895E0912E02F0912F02E817F90769F41F
:10059000A389B4899C918589809589238C93109235
:1005A0002F0210922E0281E0089580E008950895B0
:1005B00080E090E00895FC01808191810C947D0998
:1005C0000F931F93CF93DF93EC018881998100975C
:1005D00029F02A813B812617370788F48B016F5F4A
:1005E0007F4F0E94150A009761F0998388831B83CF
:1005F0000A832C813D81232B11F4FC01108281E0C0
:1006000001C080E0DF91CF911F910F910895EF928B
:10061000FF920F931F93CF93DF93FC0124813581C9
:100620006115710511F480E019C041155105A9F05B
:100630007B01EC018A01020F131FB8010E94E00246
:10064000882389F3288139818C819D81B701820FAC
:10065000931F0E94F80A1D830C8381E0DF91CF91E4
:100660001F910F91FF90EF900895EF92FF920F93DB
:100670001F93CF93DF93CDB7DEB727970FB6F894CC
:10068000DEBF0FBECDBF7C01CB014AE08E010F5F04
:100690001F4FB8010E945908F80101900020E9F7A6
:1006A0003197AF01401B510BB801C7010E940703EE
:1006B00027960FB6F894DEBF0FBECDBFDF91CF9166
:1006C0001F910F91FF90EF900895CF93DF9300D08B
:1006D000CDB7DEB769831A8241E050E0BE016F5F9B
:1006E0007F4F0E9407030F900F90DF91CF910895E5
:1006F0006115710551F0FB0101900020E9F7319778
:10070000AF01461B570B0C94070380E00895EF924E
:10071000FF920F931F93CF93DF93EC017B018A012C
:10072000BA010E94E0022881398181110DC0211592
:10073000310519F0C9010E947D09198218821D82B4
:100740001C821B821A8206C01D830C83B701C9015B
:100750000E94F80ACE01DF91CF911F910F91FF9077
:10076000EF900895FB01DC0111961C921E921396E6
:100770001C921E92129715961C921E921497861721
:10078000970749F0608171816115710521F04481FD
:1007900055810C9487030895FC0111821082138205
:1007A0001282158214826115710551F0FB010190CE
:1007B0000020E9F73197AF01461B570B0C948703D4
:1007C0000895CF92DF92EF92FF92CF93DF93EC01E7
:1007D0007B016A016EED71E00E94CC03F701448158
:1007E00055816081718180EE92E00E9415012FB7E2
:1007F000F8948091350290913602A0913702B09121
:1008000038022FBF0D2C000CEE08FF08C80ED91EB1
:10081000EA1EFB1E2FB7F8948091350290913602A4
:10082000A0913702B09138022FBF8C159D05AE05FF
:10083000BF0578F480EE92E00E948802892B51F384
:1008400080EE92E00E94A002682FCE010E94650314
:10085000F1CFEC80FD80E114F10469F0C880D9800B
:100860006AE270E0C6010E94ED0A009721F09C0147
:100870002C193D0902C02FEF3FEF30933C0220932B
:100880003B02121613061CF5C90101968E159F0531
:1008900050F4488159814115510529F0FA01E80FBA
:1008A000F91F808101C080E080933A022E5F3F4FA4
:1008B0002E153F0548F488819981009729F0FC01A5
:1008C000E20FF31F808101C080E080933902CE01E6
:1008D000DF91CF91FF90EF90DF90CF9008950E942D
:1008E000DF0A1F920F920FB60F9211242F933F939E
:1008F0008F939F93AF93BF9380913502909136026F
:10090000A0913702B09138023091340223E0230FD6
:100910002D3720F40196A11DB11D05C026E8230F37
:100920000296A11DB11D209334028093350290934D
:100930003602A0933702B093380280913002909132
:100940003102A0913202B09133020196A11DB11D76
:100950008093300290933102A0933202B09333021D
:10096000BF91AF919F918F913F912F910F900FBEAB
:100970000F901F9018951F920F920FB60F9211248F
:100980002F933F934F935F936F937F938F939F9397
:10099000AF93BF93EF93FF938DE392E00E948701A3
:1009A000FF91EF91BF91AF919F918F917F916F9147
:1009B0005F914F913F912F910F900FBE0F901F901D
:1009C00018951F920F920FB60F9211242F938F93A9
:1009D0009F93EF93FF93E0914D02F0914E0280813F
:1009E000E0915302F091540282FD12C090818091F7
:1009F00056028F5F8F7320915702821751F0E0915A
:100A00005602F0E0E35CFD4F958F8093560201C0E3
:100A10008081FF91EF919F918F912F910F900FBE49
:100A20000F901F9018951F920F920FB60F921124DE
:100A30002F933F934F935F936F937F938F939F93E6
:100A4000AF93BF93EF93FF93E0912E02F0912F02AB
:100A5000309709F451C0968DA685B785858591FF9D
:100A600004C09C91892329F447C09C91892309F0F3
:100A700043C0A389B4899C918589809589238C93EF
:100A8000868997890197F1F7608D718DA685B78565
:100A9000558538E020E0CB010197F1F7822F90E0F7
:100AA00095958795282F4C91452309F02068315062
:100AB00091F7868D81FD209580912D0290E0019621
:100AC0008F73992730912C02381749F0A0912D028D
:100AD000B0E0A451BE4F2C9380932D0203C0868DAD
:100AE0008160868F828D938D0197F1F7A389B489F8
:100AF0009C918589892B8C93FF91EF91BF91AF9148
:100B00009F918F917F916F915F914F913F912F9125
:100B10000F900FBE0F901F901895109240021092E8
:100B20003F0288EE93E0A0E0B0E080934102909312
:100B30004202A0934302B09344022AE031E0309392
:100B40003E0220933D0225EC30E030934A02209390
:100B5000490224EC30E030934C0220934B0220EC0D
:100B600030E030934E0220934D0221EC30E0309380
:100B7000500220934F0222EC30E030935202209337
:100B8000510226EC30E0309354022093530210922D
:100B90005602109257021092580210925902109267
:100BA000E3021092E2028093E4029093E502A093A4
:100BB000E602B093E7028CE191E09093E10280932A
:100BC000E0021092F7021092F6021092F9021092CF
:100BD000F8021092FB021092FA021092FD0210929B
:100BE000FC026091FE026E7F6D7F6093FE0266954F
:100BF000617081E0682782E00E948D0061E082E000
:100C00000E94D900E0EBF0E0E491E093F002ECE91F
:100C1000F0E0E491F0E0EE0FFF1FEA57FF4F8591FF
:100C200094919093F2028093F10260E083E00E943D
:100C3000D9008091FE0281FD04C061E083E00E9442
:100C40008D0083E08093EC02E1EBF0E0E491E0932F
:100C5000ED02EDE9F0E0E491F0E0EE0FFF1FE05768
:100C6000FF4F859194919093EF028093EE026EED89
:100C700071E08AED92E00C94CC03CF93DF93CDB773
:100C8000DEB7A4970FB6F894DEBF0FBECDBF789441
:100C900084B5826084BD84B5816084BD85B5826081
:100CA00085BD85B5816085BD80916E008160809332
:100CB0006E0010928100809181008260809381009B
:100CC00080918100816080938100809180008160AB
:100CD000809380008091B10084608093B100809106
:100CE000B00081608093B00080917A00846080932E
:100CF0007A0080917A00826080937A0080917A00F5
:100D0000816080937A0080917A00806880937A0075
:100D10001092C100E0914D02F0914E0282E080837A
:100D2000E0914902F0914A021082E0914B02F09169
:100D30004C028FEC808310925502E0915102F091A9
:100D4000520286E08083E0914F02F0915002808150
:100D500080618083E0914F02F09150028081886031
:100D60008083E0914F02F0915002808180688083FF
:100D7000E0914F02F091500280818F7D808310922C
:100D8000FB021092FA021092F9021092F8021092ED
:100D9000F7021092F6028DE991E09093FD028093A4
:100DA000FC029091EC02963108F057C02DEB30E038
:100DB0003093F7022093F6022BE931E03093F902E9
:100DC0002093F8022CE231E03093FB022093FA02E8
:100DD00020916800983050F031E09E3008F430E007
:100DE00081E001C0880F3A95EAF701C084E0822BC8
:100DF00080936800983038F09E3040F0963148F08B
:100E000020E030E008C02DE630E005C02BE630E001
:100E100002C02CE630E03093F4022093F3029830C5
:100E200030F481E001C0880F9A95EAF70EC0292FAF
:100E300030E09E3018F42850310902C02E5031099C
:100E400081E001C0880F2A95EAF78093F50280912E
:100E5000FC029091FD020197F1F78091FA029091C6
:100E6000FB02892B21F180912E0290912F0222E02A
:100E7000803E9207E1F0009711F00E94C10280913C
:100E8000FE028E7F8093FE0210922D0210922C02A1
:100E900080EE92E090932F0280932E02E091F30275
:100EA000F091F40290818091F502892B80836AE2AF
:100EB00071E0CE0107960E94CC0340ED57E0BE01E1
:100EC000695F7F4FCE0101960E94E103CE0101963A
:100ED0000E94DB02CE0107960E94DB0261E08DE0FA
:100EE0000E94D90061E088E00E94D90061E089E0B9
:100EF0000E94D90080EE92E00E948802892B09F0BE
:100F000096C063E371E0CE014F960E94CC036BE57F
:100F100071E0CE0149960E94CC0360E671E0CE01FB
:100F200043960E94CC036D8D7E8DCE0143960E9428
:100F300035036AED71E0CE0143960E9478034D8D32
:100F40005E8D698D7A8DCE0143960E9407036AED0E
:100F500071E0CE0143960E9478036FED71E0CE01FF
:100F60000D960E94CC036F89788DCE010D960E945C
:100F700035036CED71E0CE010D960E947803BE0141
:100F8000615E7F4FCE0101960E94B2034AE050E0BD
:100F9000BE016F5F7F4FCE0107960E94E103CE0135
:100FA00007960E94DB02CE0101960E94DB02BE0181
:100FB000635F7F4FCE0101960E94B2034AE050E08A
:100FC000BE016F5F7F4FCE0107960E94E103CE0105
:100FD00007960E94DB02CE0101960E94DB02BE0151
:100FE0006D5E7F4FCE0101960E94B20344EF51E047
:100FF000BE016F5F7F4FCE0107960E94E103CE01D5
:1010000007960E94DB02CE0101960E94DB02CE0110
:101010000D960E94DB02CE0143960E94DB02CE01B8
:1010200049960E94DB02CE014F960E94DB026EEDD4
:1010300071E0CE0101960E94CC036AE2CE010196D6
:101040000E94650360913902623008F062E3CE01CC
:1010500001960E94650360913A02623008F062E3F3
:10106000CE0101960E9465034D815E8169817A817E
:101070008DE392E00E94150142E050E06CED71E0DA
:101080008DE392E00E941501CE0101960E94DB02E1
:101090000E9411022FCF8AED92E00E94DB028CE1C8
:1010A00091E09093E1028093E00280EE92E00C9454
:1010B000C102BB27FB015527AA27880F991FAA1F2A
:1010C000A41710F0A41B83955051B9F7A05DAA3363
:1010D00008F0A95DA193009779F7B111B19311922E
:1010E000CB010C947308DC01FC01672F719177230D
:1010F000E1F7329704C07C916D9370836291AE17D3
:10110000BF07C8F308952F923F924F925F926F925C
:101110007F928F929F92AF92BF92CF92DF92EF9287
:10112000FF920F931F93CF93DF93CDB7DEB7CA1B08
:10113000DB0B0FB6F894DEBF0FBECDBF09942A8833
:10114000398848885F846E847D848C849B84AA84DB
:10115000B984C884DF80EE80FD800C811B81AA8168
:10116000B981CE0FD11D0FB6F894DEBF0FBECDBF33
:10117000ED01089597FB072E16F4009407D077FD34
:1011800009D00E94CE0807FC05D03EF490958195C9
:101190009F4F0895709561957F4F0895AA1BBB1BC3
:1011A00051E107C0AA1FBB1FA617B70710F0A61B67
:1011B000B70B881F991F5A95A9F780959095BC0188
:1011C000CD010895EE0FFF1F0590F491E02D0994D5
:1011D000CF93DF938230910510F482E090E0E091AC
:1011E0000103F091020320E030E0C0E0D0E030974E
:1011F00011F14081518148175907C0F0481759072C
:1012000061F482819381209719F09B838A832BC09C
:10121000909302038093010326C02115310519F034
:101220004217530718F49A01BE01DF01EF01028053
:10123000F381E02DDCCF2115310509F1281B390B95
:101240002430310590F412968D919C91139761157D
:10125000710521F0FB019383828304C09093020304
:1012600080930103FD01329644C0FD01E20FF31F9C
:1012700081939193225031092D933C933AC0209150
:10128000FF0230910003232B41F4209102013091A1
:101290000301309300032093FF022091000130915D
:1012A00001012115310541F42DB73EB740910401EC
:1012B00050910501241B350BE091FF02F0910003D2
:1012C000E217F307A0F42E1B3F0B2817390778F01D
:1012D000AC014E5F5F4F2417350748F04E0F5F1F7C
:1012E000509300034093FF028193919302C0E0E08A
:1012F000F0E0CF01DF91CF9108950F931F93CF932B
:10130000DF93009709F48CC0FC013297138212829C
:1013100000910103109102030115110581F4208150
:101320003181820F931F2091FF0230910003281713
:10133000390779F5F0930003E093FF0271C0D801FB
:1013400040E050E0AE17BF0750F412962D913C914B
:101350001397AD012115310509F1D901F3CF9D0195
:10136000DA013383228360817181860F971F821790
:10137000930769F4EC0128813981260F371F2E5F0E
:101380003F4F318320838A819B8193838283452BC6
:1013900029F4F0930203E093010342C01396FC93F7
:1013A000EE931297ED01499159919E01240F351F3B
:1013B000E217F30771F480819181840F951F0296E3
:1013C00011969C938E938281938113969C938E9316
:1013D0001297E0E0F0E0D80112968D919C9113975E
:1013E000009719F0F8018C01F6CF8D919C9198012E
:1013F0002E5F3F4F820F931F2091FF023091000319
:101400002817390769F4309729F4109202031092D3
:10141000010302C013821282109300030093FF02A3
:10142000DF91CF911F910F910895A0E0B0E0EBE123
:10143000FAE00C948708EC01009721F4CB010E949C
:10144000E808B8C0FC01E60FF71F9C0122503109E3
:10145000E217F30708F4ACC0D9010D911C91119764
:1014600006171707B0F00530110508F49FC0C80132
:1014700004978617970708F499C002501109061BB4
:10148000170B019311936D937C93CF010E947D09FB
:101490008DC05B01A01AB10A4C01800E911EA09173
:1014A0000103B091020340E050E0E12CF12C1097D1
:1014B00009F44AC0A815B905D1F56D907C90119733
:1014C000630182E0C80ED11CCA14DB0480F1A301C1
:1014D0004A195B096A0182E0C80ED11C1296BC90C1
:1014E00012971396AC91B5E0CB16D10440F0B282BE
:1014F000A38351834083D9016D937C930AC00E5F0F
:101500001F4FC301800F911FF90191838083EB2D41
:10151000FA2FE114F10431F0D7011396FC93EE9306
:10152000129744C0F0930203E09301033FC08D91F2
:101530009C9111974817590708F4AC017D01129648
:101540000D90BC91A02DB3CF8091FF02909100032C
:1015500088159905E1F446175707C8F480910001F2
:1015600090910101009741F48DB79EB7409104011D
:1015700050910501841B950BE817F907C8F4F09307
:101580000003E093FF02F901718360830FC0CB0178
:101590000E94E8087C01009759F0A801BE010E9452
:1015A000E40ACE010E947D09C70104C0CE0102C039
:1015B00080E090E0CDB7DEB7EEE00C94A30881E0C8
:1015C00090E0F8940C94FF0AFB01DC0102C001904A
:1015D0000D9241505040D8F70895FC018191861733
:1015E00021F08823D9F7992708953197CF010895DD
:1015F000FB01DC0101900D920020E1F7089510E05D
:10160000C2E6D0E004C0FE010E94E2082196C33683
:08161000D107C9F7F894FFCFE0
:1016180000000303800000000000A801150140013C
:10162800EF0171014F016301000000003402150150
:10163800D80233028802A0021B0241542B52535491
:101648000D0A0041542B43495053544152543D22F2
:10165800544350222C223137322E31362E31393232
:101668002E313438222C38300D0A006573703D0055
:10167800504F5354202F455350736D617274486F07
:101688007573652E70687020485454502F312E3170
:101698000D0A486F73743A203137322E31362E31A5
:1016A80039322E3134380D0A436F6E74656E742DDD
:1016B800547970653A206170706C69636174696F00
:1016C8006E2F782D7777772D666F726D2D75726C0A
:1016D800656E636F6465640D0A436F6E74656E743E
:1016E8002D4C656E6774683A20000D0A0D0A00419A
:0C16F800542B43495053454E443D000024
:00000001FF
