:100000000C943A010C946B010C946B010C946B01F1
:100010000C946B010C946B010C946B010C946B01B0
:100020000C946B010C946B010C946B010C946B01A0
:100030000C946B010C946B010C946B010C946B0190
:100040000C946B010C946B010C946B010C946B0180
:100050000C946B010C946B010C946B010C948A034F
:100060000C946B010C9452040C9428040C946B01B6
:100070000C946B010C946B010C946B010C946B0150
:100080000C946B010C946B010C946B010C946B0140
:100090000C94FE030C94D4030C946B010C946B0130
:1000A0000C946B010C946B010C946B010C946B0120
:1000B0000C946B010C946B010C946B010C946B0110
:1000C0000C946B010C946B010C946B010C946B0100
:1000D0000C946B010C946B010C946B010C946B01F0
:1000E0000C946B01BB01BE01AD01B101B501F5017D
:1000F000C201C601CC01D001D401DA01DE01E20166
:10010000F501E801EC01F0010C940A030C94D00114
:100110000C94D4010C94BB010C94CC010C94B5014B
:100120000C94C3020C94C6010C9409020C94820234
:100130000C947C040C9451020C9460020C94C20147
:100140000C94B1010C94E8010C94E2010C94F501BB
:100150000C94DE010C94F0010C9474020C94AD012B
:100160000C94DA010C94BE010C94EC0100000A0B13
:1001700002090C0D0E080703040100000000000036
:10018000000000000000000000000000000000006F
:10019000000000000000000012111000000000002C
:1001A000000000000000000000000000000000004F
:1001B000000000002200250028002B002E00310046
:1001C000340002010000050108010B0100002100BC
:1001D000240027002A002D00300033000101000018
:1001E000040107010A0105050505070508080808B7
:1001F000020202020A0A08080404040401010101BF
:1002000001010101030303030303030304070707B9
:100210000C0C0C0C0C0C0C0C02020202060606065E
:10022000060606060B0B0B0B0B0B0B0B010210202B
:10023000200808102040102040800201020108041C
:1002400002010102040810204080804020100804B0
:100250000201800402018040201008040201080409
:10026000020101020408102040800102040810204D
:1002700040807C0411241FBECFEFD1E2DEBFCDBF92
:1002800000E00CBF23E0ACE1B2E001C01D92A93652
:10029000B207E1F712E0A0E0B2E0E6E8F1E100E049
:1002A0000BBF02C007900D92AC31B107D9F711E036
:1002B000CAE3D1E000E006C021970109802FFE01CA
:1002C0000E948306C933D10780E00807A9F70E947E
:1002D000CF040C94C1080C94000090E0FC01E45D94
:1002E000FD4F2491FC01EA51FE4F8491882399F03F
:1002F00090E0880F991FFC01E453FE4FA591B49143
:10030000FC01EE54FE4F859194918FB7F894EC91D7
:10031000E22BEC938FBF0895362F90E0FC01E45957
:10032000FE4F4491FC01E45DFD4F2491FC01EA5134
:10033000FE4F9491992309F46BC0442309F455C0EE
:1003400050E0FA013197E231F10508F04EC08827FC
:10035000EE58FF4F8F4F0C948306809180008F776B
:1003600007C0809180008F7D03C080918000877FCF
:10037000809380003AC084B58F7702C084B58F7DAA
:1003800084BD33C08091B0008F7703C08091B000EE
:100390008F7D8093B00029C0809190008F7707C037
:1003A000809190008F7D03C080919000877F809323
:1003B00090001BC08091A0008F7707C08091A000A3
:1003C0008F7D03C08091A000877F8093A0000DC027
:1003D000809120018F7707C0809120018F7D03C01D
:1003E00080912001877F80932001E92FF0E0EE0FBC
:1003F000FF1FEE54FE4FA591B4918FB7F894EC9186
:10040000311103C020952E2301C02E2B2C938FBFBA
:100410000895CF92DF92EF92FF920F931F93CF93A5
:10042000DF936C017A018B01C0E0D0E0CE15DF05CF
:1004300089F0D8016D918D01D601ED91FC9101906B
:10044000F081E02DC6011995892B11F47E0102C0BF
:100450002196ECCFC701DF91CF911F910F91FF90B3
:10046000EF90DF90CF900895FC01A089B1898C9125
:10047000A689B78982FD0FC09C91818D8F5F8F7394
:10048000228D821749F0218DDF01A20FB11D5D96EB
:100490009C93818F08958C910895089580E090E059
:1004A0000895FC01538D448D252F30E0842F90E07A
:1004B000821B930B541710F0CF960895019708955F
:1004C000FC01918D828D981761F0828DDF01A80F5C
:1004D000B11D5D968C91928D9F5F9F73928F90E07E
:1004E00008958FEF9FEF0895FC01918D828D9817ED
:1004F00031F0828DE80FF11D858D90E008958FEF2A
:100500009FEF0895FC01918D228D892F90E0805CF2
:100510009F4F821B91098F73992708958BE292E078
:100520000E94820221E0892B09F420E0822F0895A5
:1005300088EC92E00E94820221E0892B09F420E0FD
:10054000822F0895FC01848DDF01A80FB11DA35AED
:10055000BF4F2C91848D90E001968F739927848FE3
:10056000A689B7892C93A089B1898C9180648C93DA
:10057000938D848D981306C00288F389E02D8081C5
:100580008F7D80830895EF92FF920F931F93CF93F7
:10059000DF93EC0181E0888F9B8D8C8D981305C0D3
:1005A000E889F989808185FD24C0F62E0B8D10E045
:1005B0000F5F1F4F0F731127E02E8C8DE8120CC0B8
:1005C0000FB607FCFACFE889F989808185FFF5CF5E
:1005D000CE010E94A202F1CF8B8DFE01E80FF11D2A
:1005E000E35AFF4FF0820B8FEA89FB89808180629A
:1005F00007C0EE89FF896083E889F989808180647A
:10060000808381E090E0DF91CF911F910F91FF9067
:10061000EF900895CF93DF93EC01888D8823C9F084
:10062000EA89FB89808185FD05C0A889B9898C91FB
:1006300086FD0FC00FB607FCF5CF808185FFF2CF96
:10064000A889B9898C9185FFEDCFCE010E94A202C5
:10065000E7CFDF91CF91089580E090E0892B21F0E2
:100660000E949802811121C080E090E0892B21F046
:100670000E948E0281111CC080E090E0892B41F025
:1006800080E090E0892B21F00E940000811113C0CE
:1006900080E090E0892BA1F080E090E0892B81F050
:1006A0000E94000081110AC008950E940000DCCF62
:1006B0000E940000E1CF0E940000EACF0C940000ED
:1006C00008950E94A1080F931F93CF93DF93EC012D
:1006D00088819981009729F02A813B812617370765
:1006E00088F48B016F5F7F4F0E94B807009761F01D
:1006F000998388831B830A832C813D81232B11F4EA
:10070000FC01108281E001C080E0DF91CF911F9158
:100710000F9108951F920F920FB60F9211242F93ED
:100720003F938F939F93AF93BF93809127029091B4
:100730002802A0912902B0912A023091260223E0DA
:10074000230F2D3720F40196A11DB11D05C026E809
:10075000230F0296A11DB11D20932602809327022C
:1007600090932802A0932902B0932A02809122023A
:1007700090912302A0912402B09125020196A11D1F
:10078000B11D8093220290932302A0932402B09380
:100790002502BF91AF919F918F913F912F910F9023
:1007A0000FBE0F901F9018951F920F920FB60F92C9
:1007B00011240BB60F922F933F934F935F936F9338
:1007C0007F938F939F93AF93BF93EF93FF938BE2AE
:1007D00092E00E94A202FF91EF91BF91AF919F9191
:1007E0008F917F916F915F914F913F912F910F90DA
:1007F0000BBE0F900FBE0F901F9018951F920F9277
:100800000FB60F9211240BB60F922F933F934F9375
:100810005F936F937F938F939F93AF93BF93EF9368
:10082000FF938BE292E00E943402FF91EF91BF911F
:10083000AF919F918F917F916F915F914F913F9178
:100840002F910F900BBE0F900FBE0F901F90189519
:100850001F920F920FB60F9211240BB60F922F9387
:100860003F934F935F936F937F938F939F93AF9338
:10087000BF93EF93FF9388EC92E00E94A202FF9156
:10088000EF91BF91AF919F918F917F916F915F9108
:100890004F913F912F910F900BBE0F900FBE0F9075
:1008A0001F9018951F920F920FB60F9211240BB63E
:1008B0000F922F933F934F935F936F937F938F93F9
:1008C0009F93AF93BF93EF93FF9388EC92E00E94C6
:1008D0003402FF91EF91BF91AF919F918F917F91E2
:1008E0006F915F914F913F912F910F900BBE0F90A1
:1008F0000FBE0F901F901895EBE2F2E01382128268
:1009000048EE53E060E070E044835583668377836C
:100910008AE092E0918380832DEC30E03587248754
:100920002CEC30E03787268728EC30E0318B208BA9
:1009300029EC30E0338B228B2AEC30E0358B248B92
:100940002EEC30E0378B268B118E128E138E148E88
:10095000E8ECF2E013821282448355836683778346
:100960009183808385EC90E09587848784EC90E088
:100970009787868780EC90E0918B808B81EC90E06C
:10098000938B828B82EC90E0958B848B86EC90E04D
:10099000978B868B118E128E138E148E0895CF93A3
:1009A000DF93CDB7DEB728970FB6F894DEBF0FBE42
:1009B000CDBF789484B5826084BD84B5816084BDE8
:1009C00085B5826085BD85B5816085BD80916E00ED
:1009D000816080936E00109281008091810082601E
:1009E000809381008091810081608093810080915B
:1009F00080008160809380008091B100846080934A
:100A0000B1008091B00081608093B000809191002E
:100A10008260809391008091910081608093910029
:100A2000809190008160809390008091A10082600D
:100A30008093A1008091A10081608093A1008091AA
:100A4000A00081608093A00080912101826080934A
:100A500021018091210181608093210180912001F9
:100A600081608093200180917A00846080937A0075
:100A700080917A00826080937A0080917A00816010
:100A800080937A0080917A00806880937A00109237
:100A9000C100E091D802F091D90222E02083E091D8
:100AA000D402F091D5021082E091D602F091D702E3
:100AB0008FEC80831092E002E091DC02F091DD0285
:100AC00096E09083E091DA02F091DB028081806110
:100AD0008083E091DA02F091DB028081886080837C
:100AE000E091DA02F091DB02808180688083E091FE
:100AF000DA02F091DB0280818F7D8083E0913B02FE
:100B0000F0913C022083E0913702F091380210828C
:100B1000E0913902F0913A0280E180831092430221
:100B2000E0913F02F09140029083E0913D02F0910C
:100B30003E02808180618083E0913D02F0913E021F
:100B4000808188608083E0913D02F0913E02808147
:100B500080688083E0913D02F0913E0280818F7D2C
:100B6000808388E00E946D0189E00E946D018CE025
:100B70000E946D018DE00E946D011A8219821C8213
:100B80001B821E821D8260E070E0CE0101960E94F1
:100B9000630329813A8181110DC02115310519F0B6
:100BA000C9010E9420071A8219821E821D821C829E
:100BB0001B8207C01E821D826AE172E0C9010E9489
:100BC000BA088BE292E00E948202892BD1F38BE279
:100BD00092E00E946002803409F06EC060E08CE018
:100BE0000E948C0161E08CE00E948C014D815E814D
:100BF00069817A8188EC92E00E94090242E050E02B
:100C000068E172E088EC92E00E940902ED80FE80CB
:100C1000C980DA80E114F10459F06AE270E0C6019B
:100C20000E94AF08009721F09C012C193D0902C0D9
:100C30002FEF3FEF30931D0220931C02C901019654
:100C40008E159F0540F4C114D10429F0F601E80F78
:100C5000F91F008101C000E0002E000C110B0053B1
:100C6000110910932102009320022E5F3F4F2E1591
:100C70003F0540F4C114D10429F0F601E20FF31F3F
:100C8000E08001C0E12C0E2C000CFF0880E3E81A84
:100C9000F108F0921F02E0921E02C6010E94200796
:100CA0000230110528F5602F88E00E948C01602F2A
:100CB0008DE00E948C011CC08F8318860D811E81DF
:100CC0000F5F1F4FB801CE0101960E946303882376
:100CD00009F477CF29813A818D819E81BE01695FB8
:100CE0007F4F820F931F0E94BA081E830D8369CF26
:100CF00082E0E816F10420F46E2D89E00E948C0158
:100D00000E942C033ACFEE0FFF1F881F8BBF079066
:100D1000F691E02D1994CF93DF938230910510F472
:100D200082E090E0E0916703F091680320E030E01A
:100D3000C0E0D0E0309711F1408151814817590748
:100D4000C0F04817590761F482819381209719F008
:100D50009B838A832BC0909368038093670326C08C
:100D60002115310519F04217530718F49A01BE01F5
:100D7000DF01EF010280F381E02DDCCF2115310589
:100D800009F1281B390B2430310590F412968D910E
:100D90009C9113976115710521F0FB019383828368
:100DA00004C09093680380936703FD01329644C0AA
:100DB000FD01E20FF31F81939193225031092D938E
:100DC0003C933AC02091650330916603232B41F494
:100DD0002091020230910302309366032093650351
:100DE00020910002309101022115310541F42DB707
:100DF0003EB74091040250910502241B350BE0914F
:100E00006503F0916603E217F307A0F42E1B3F0B76
:100E10002817390778F0AC014E5F5F4F241735076C
:100E200048F04E0F5F1F5093660340936503819314
:100E3000919302C0E0E0F0E0CF01DF91CF910895FF
:100E40000F931F93CF93DF93009709F48CC0FC019D
:100E50003297138212820091670310916803011583
:100E6000110581F420813181820F931F2091650348
:100E7000309166032817390779F5F0936603E093FC
:100E8000650371C0D80140E050E0AE17BF0750F4D1
:100E900012962D913C911397AD012115310509F161
:100EA000D901F3CF9D01DA013383228360817181FF
:100EB000860F971F8217930769F4EC012881398107
:100EC000260F371F2E5F3F4F318320838A819B81FE
:100ED00093838283452B29F4F0936803E09367039F
:100EE00042C01396FC93EE931297ED0149915991EC
:100EF0009E01240F351FE217F30771F48081918161
:100F0000840F951F029611969C938E9382819381F4
:100F100013969C938E931297E0E0F0E0D80112961E
:100F20008D919C911397009719F0F8018C01F6CFE1
:100F30008D919C9198012E5F3F4F820F931F2091BE
:100F40006503309166032817390769F4309729F44F
:100F5000109268031092670302C0138212821093EA
:100F6000660300936503DF91CF911F910F91089560
:100F70006F927F928F929F92AF92BF92CF92DF92A9
:100F8000EF92FF920F931F93CF93DF93EC010097A3
:100F900089F4CB01DF91CF911F910F91FF90EF90DA
:100FA000DF90CF90BF90AF909F908F907F906F9089
:100FB0000C948B06FC01E60FF71F9C0122503109AF
:100FC000E217F30708F4ACC0D9010D911C911197F9
:100FD00006171707B0F00530110508F49FC0C801C7
:100FE00004978617970708F499C002501109061B49
:100FF000170B019311936D937C93CF010E942007EF
:101000008DC05B01A01AB10A4C01800E911EA09107
:101010006703B091680340E050E0E12CF12C109799
:1010200009F44AC0A815B905D1F56D907C901197C7
:10103000630182E0C80ED11CCA14DB0480F1A30155
:101040004A195B096A0182E0C80ED11C1296BC9055
:1010500012971396AC91B5E0CB16D10440F0B28252
:10106000A38351834083D9016D937C930AC00E5FA3
:101070001F4FC301800F911FF90191838083EB2DD6
:10108000FA2FE114F10431F0D7011396FC93EE939B
:10109000129744C0F0936803E09367033FC08D91BB
:1010A0009C9111974817590708F4AC017D011296DD
:1010B0000D90BC91A02DB3CF8091650390916603F4
:1010C00088159905E1F446175707C8F48091000286
:1010D00090910102009741F48DB79EB740910402B0
:1010E00050910502841B950BE817F907C8F4F0939B
:1010F0006603E0936503F901718360830FC0CB0140
:101100000E948B067C01009759F0A801BE010E9445
:10111000A608CE010E942007C70104C0CE0102C06C
:1011200080E090E0DF91CF911F910F91FF90EF90C1
:10113000DF90CF90BF90AF909F908F907F906F90F7
:10114000089581E090E0F8940C94C108FB01DC0163
:1011500002C001900D9241505040D8F70895FC0113
:101160008191861721F08823D9F79927089531971F
:10117000CF010895FB01DC0101900D920020E1F701
:061180000895F894FFCF72
:1011860000006903800000000000C302090251024A
:0C1196000A038202600274020D0A0000CD
:00000001FF
