:100000000C9447010C9478010C9478010C947801BD
:100010000C9478010C9478010C9478010C9478017C
:100020000C9478010C9478010C9478010C9478016C
:100030000C9478010C9478010C9478010C9478015C
:100040000C9478010C9478010C9478010C9478014C
:100050000C9478010C9478010C9478010C94FD03B5
:100060000C9478010C94C5040C949B040C947801B6
:100070000C9478010C9478010C9478010C9478011C
:100080000C9478010C9478010C9478010C9478010C
:100090000C9478010C9478010C9478010C947801FC
:1000A0000C9478010C9478010C9478010C947801EC
:1000B0000C9478010C9478010C9478010C947801DC
:1000C0000C9478010C9478010C9478010C947104D0
:1000D0000C9447040C9478010C9478010C947801EA
:1000E0000C947801DB01DE01CD01D101D7011502AD
:1000F000E201E601EC01F001F401FA01FE01020265
:10010000150208020C0210020C9402020C94DB018E
:100110000C94D1010C9415020C94EC010C94F50292
:100120000C94D3020C94E6010C9436030C94F40165
:100130000C947D030C940C020C94E2010C94DE01EF
:100140000C9408020C947C020C94C4020C94EF04EE
:100150000C94FA010C94FE010C94E7020C94D70164
:100160000C9410020C94CD010C94F00100002000BE
:100170002300260029002C002F003200000100007F
:1001800003010601090100000A0B02090C0D0E080B
:100190000703040100000000000000000000000050
:1001A000000000000000000000000000000000004F
:1001B000000012111000000000000000000000000C
:1001C000000000000000000000000000000022000D
:1001D000250028002B002E00310034000201000011
:1001E000050108010B0100002100240027002A005E
:1001F0002D003000330001010000040107010A0155
:1002000005050505070508080808020202020A0A92
:1002100008080404040401010101010101010303B0
:10022000030303030303040707070C0C0C0C0C0C5B
:100230000C0C0202020206060606060606060B0B58
:100240000B0B0B0B0B0B0102102020080810204099
:10025000102040800201020108040201010204088A
:100260001020408080402010080402018004020118
:100270008040201008040201080402010102040861
:10028000102040800102040810204080EF04112457
:100290001FBECFEFD1E2DEBFCDBF00E00CBF23E039
:1002A000ACE1B2E001C01D92A537B207E1F712E060
:1002B000A0E0B2E0E8E7F3E100E00BBF02C0079086
:1002C0000D92AC31B107D9F711E0C7E4D1E000E0FD
:1002D00006C021970109802FFE010E947C07C634C9
:1002E000D10780E00807A9F70E9442050C94BA09DB
:1002F0000C940000FC01A089B18982E08C93A48554
:10030000B5851C92A685B7858FEC8C93108EA48939
:10031000B58986E08C93A289B3898C9180618C9396
:10032000A289B3898C9188608C93A289B3898C91BE
:1003300080688C930288F389E02D80818F7D808393
:10034000089590E0FC01EA5BFD4F2491FC01E05030
:10035000FE4F8491882399F090E0880F991FFC014B
:10036000EA51FE4FA591B491FC01E453FE4F8591F3
:1003700094918FB7F894EC91E22BEC938FBF089592
:1003800090E0FC013197E231F10508F04EC088277A
:10039000EE58FF4F8F4F0C947C07809180008F7731
:1003A00003C0809180008F7D8093800008958091AC
:1003B0008000877FF9CF84B58F7702C084B58F7DA9
:1003C00084BD08958091B0008F7703C08091B00004
:1003D0008F7D8093B0000895809190008F7707C043
:1003E000809190008F7D03C080919000877F8093E3
:1003F000900008958091A0008F7707C08091A000A1
:100400008F7D03C08091A000877F8093A000089516
:10041000809120018F7707C0809120018F7D03C0DC
:1004200080912001877F8093200108951F93CF93AF
:10043000DF93282F30E0F901EA57FE4F8491F9014C
:10044000EA5BFD4FD491F901E050FE4FC491CC23FB
:10045000C9F0162F81110E94C001EC2FF0E0EE0FC1
:10046000FF1FE453FE4FA591B4918FB7F89411117B
:1004700005C09C91ED2FE095E92302C0EC91ED2B96
:10048000EC938FBFDF91CF911F9108953FB7F89400
:100490008091330290913402A0913502B0913602DE
:1004A00026B5A89B05C02F3F19F00196A11DB11DCF
:1004B0003FBFBA2FA92F982F8827820F911DA11D0A
:1004C000B11DBC01CD0142E0660F771F881F991F47
:1004D0004A95D1F70895FC0124813581621773078D
:1004E00048F480819181009729F0FC01E60FF71F05
:1004F0008081089580E00895CF92DF92EF92FF927D
:100500000F931F93CF93DF936C017A018B01C0E0AF
:10051000D0E0CE15DF0589F0D8016D918D01D601AF
:10052000ED91FC910190F081E02DC6011995892B88
:1005300011F47E0102C02196ECCFC701DF91CF916B
:100540001F910F91FF90EF90DF90CF900895FC01E5
:10055000A089B1898C91A689B78982FD0FC09C9131
:10056000818D8F5F8F73228D821749F0218DDF017E
:10057000A20FB11D5D969C93818F08958C91089573
:10058000089580E090E00895FC01538D448D252F5F
:1005900030E0842F90E0821B930B541710F0CF961D
:1005A000089501970895FC01918D828D981761F04F
:1005B000828DDF01A80FB11D5D968C91928D9F5F9A
:1005C0009F73928F90E008958FEF9FEF0895FC0145
:1005D000918D828D981731F0828DE80FF11D858DF8
:1005E00090E008958FEF9FEF0895FC01918D228D8B
:1005F000892F90E0805C9F4F821B91098F73992710
:10060000089587E392E00E94F50221E0892B09F426
:1006100020E0822F089584ED92E00E94F50221E00F
:10062000892B09F420E0822F0895FC01848DDF01DD
:10063000A80FB11DA35ABF4F2C91848D90E0019655
:100640008F739927848FA689B7892C93A089B18944
:100650008C9180648C93938D848D981306C002884E
:10066000F389E02D80818F7D80830895EF92FF9242
:100670000F931F93CF93DF93EC0181E0888F9B8DC5
:100680008C8D981305C0E889F989808185FD24C087
:10069000F62E0B8D10E00F5F1F4F0F731127E02E0A
:1006A0008C8DE8120CC00FB607FCFACFE889F989E7
:1006B000808185FFF5CFCE010E941503F1CF8B8D90
:1006C000FE01E80FF11DE35AFF4FF0820B8FEA891C
:1006D000FB898081806207C0EE89FF896083E88999
:1006E000F98980818064808381E090E0DF91CF91FF
:1006F0001F910F91FF90EF900895CF93DF93EC013E
:10070000888D8823C9F0EA89FB89808185FD05C031
:10071000A889B9898C9186FD0FC00FB607FCF5CF6B
:10072000808185FFF2CFA889B9898C9185FFEDCFB3
:10073000CE010E941503E7CFDF91CF91089580E0AD
:1007400090E0892B21F00E940B03811121C080E0F1
:1007500090E0892B41F080E090E0892B21F00E940D
:100760000000811118C080E090E0892B21F00E94E8
:100770000103811113C080E090E0892BA1F080E09B
:1007800090E0892B81F00E94000081110AC0089539
:100790000E940000DCCF0E940000E5CF0E94000014
:1007A000EACF0C94000008950E949A090F931F93BA
:1007B000CF93DF93EC0188819981009729F02A81FA
:1007C0003B812617370788F48B016F5F7F4F0E94AC
:1007D000B108009761F0998388831B830A832C8179
:1007E0003D81232B11F4FC01108281E001C080E0E7
:1007F000DF91CF911F910F9108951F920F920FB625
:100800000F9211242F933F938F939F93AF93BF9396
:1008100080912F0290913002A0913102B09132026A
:1008200030912E0223E0230F2D3720F40196A11DD5
:10083000B11D05C026E8230F0296A11DB11D20930E
:100840002E0280932F0290933002A0933102B09336
:1008500032028091330290913402A0913502B0911E
:1008600036020196A11DB11D80933302909334028C
:10087000A0933502B0933602BF91AF919F918F91B3
:100880003F912F910F900FBE0F901F9018951F92C0
:100890000F920FB60F9211240BB60F922F933F9326
:1008A0004F935F936F937F938F939F93AF93BF9378
:1008B000EF93FF9387E392E00E941503FF91EF917E
:1008C000BF91AF919F918F917F916F915F914F9168
:1008D0003F912F910F900BBE0F900FBE0F901F9066
:1008E00018951F920F920FB60F9211240BB60F920C
:1008F0002F933F934F935F936F937F938F939F9328
:10090000AF93BF93EF93FF9387E392E00E94A70218
:10091000FF91EF91BF91AF919F918F917F916F91D7
:100920005F914F913F912F910F900BBE0F900FBE93
:100930000F901F9018951F920F920FB60F921124CF
:100940000BB60F922F933F934F935F936F937F93C9
:100950008F939F93AF93BF93EF93FF9384ED92E0B8
:100960000E941503FF91EF91BF91AF919F918F91DD
:100970007F916F915F914F913F912F910F900BBE9F
:100980000F900FBE0F901F9018951F920F920FB6E9
:100990000F9211240BB60F922F933F934F935F93B7
:1009A0006F937F938F939F93AF93BF93EF93FF9337
:1009B00084ED92E00E94A702FF91EF91BF91AF9169
:1009C0009F918F917F916F915F914F913F912F9167
:1009D0000F900BBE0F900FBE0F901F901895E7E37E
:1009E000F2E01382128248EE53E060E070E044834C
:1009F0005583668377838AE092E09183808325ED37
:100A000030E03587248724ED30E03787268720EDD6
:100A100030E0318B208B21ED30E0338B228B22EDC7
:100A200030E0358B248B26ED30E0378B268B118E12
:100A3000128E138E148EE4EDF2E013821282448340
:100A40005583668377839183808385EC90E09587D7
:100A5000848784EC90E09787868780EC90E0918B88
:100A6000808B81EC90E0938B828B82EC90E0958B75
:100A7000848B86EC90E0978B868B118E128E138E72
:100A8000148E0895CF93DF93CDB7DEB728970FB6B6
:100A9000F894DEBF0FBECDBF789484B5826084BD6C
:100AA00084B5816084BD85B5826085BD85B5816072
:100AB00085BD80916E00816080936E0010928100F0
:100AC00080918100826080938100809181008160AB
:100AD000809381008091800081608093800080916C
:100AE000B10084608093B1008091B00081608093F8
:100AF000B00080919100826080939100809191007C
:100B0000816080939100809190008160809390003B
:100B10008091A10082608093A1008091A1008160FA
:100B20008093A1008091A00081608093A0008091BB
:100B30002101826080932101809121018160809355
:100B400021018091200181608093200180917A00B1
:100B5000846080937A0080917A00826080937A002A
:100B600080917A00816080937A0080917A00806819
:100B700080937A001092C10084ED92E00E947A0185
:100B800087E392E00E947A018DE00E94A10189E052
:100B90000E94A10186E00E94A1018CE00E94A101B7
:100BA0008DE00E94A1013DE8232E31E0332E47E085
:100BB000A42E42E0B42E88248394912C1A821982A8
:100BC0001C821B821E821D8260E070E0CE010196B5
:100BD0000E94D60329813A8181110DC0211531056A
:100BE00019F0C9010E9419081A8219821E821D82F9
:100BF0001C821B8207C01E821D826AE172E0C9014D
:100C00000E94B30987E392E00E94F502892BD1F399
:100C100087E392E00E94D302803409F080C060E054
:100C20008CE00E94160261E08CE00E9416024D8169
:100C30005E8169817A8184ED92E00E947C0242E0CB
:100C400050E068E172E084ED92E00E947C028D81C8
:100C50009E8169807A80892B59F06AE270E0C30135
:100C60000E94A809009721F06C01C618D70803C09C
:100C7000CC24CA94DC2CD0921D02C0921C02B60176
:100C80006F5F7F4FCE0101960E946B02082F880F85
:100C9000110B005311091093210200932002B60199
:100CA0006E5F7F4FCE0101960E946B02E82E880F87
:100CB000FF0820E3E21AF108F0921F02E0921E0200
:100CC000B6016D5F7F4FCE0101960E946B02082E28
:100CD000000C990BC09790932D0280932C02B601C3
:100CE0006C5F7F4FCE0101960E946B02C82E880F69
:100CF000DD0880E3C81AD108D0922B02C0922A02E4
:100D0000C3010E9419080230110528F5602F8DE0FB
:100D10000E941602602F8DE00E9416021CC08F8375
:100D200018860D811E810F5F1F4FB801CE010196FD
:100D30000E94D603882309F465CF29813A818D81E9
:100D40009E81BE01695F7F4F820F931F0E94B3098E
:100D50001E830D8357CFE2E0EE16F10420F46E2DD2
:100D600089E00E941602CA94CD2809F08BC0F101D7
:100D70008491EDE4F2E00491F50114911123A1F0C6
:100D800081110E94C001E12FF0E0EE0FFF1FE45936
:100D9000FE4FA591B4918C91082331E020E009F435
:100DA00030E0832F922F02C080E090E090932902E0
:100DB00080932802892B09F04DC0809126029091E2
:100DC0002702892BB9F42FB7F89480912F029091C4
:100DD0003002A0913102B09132022FBF80932202E3
:100DE00090932302A0932402B093250290922702AD
:100DF000809226028091260290912702019709F0A5
:100E000041C02FB7F89480912F0290913002A091A9
:100E10003102B09132022FBF409122025091230241
:100E20006091240270912502841B950BA60BB70BD1
:100E300088389341A105B10528F160E08DE00E945A
:100E40001602109221021092200210922702109294
:100E5000260218C02FB7F89480912F02909130028B
:100E6000A0913102B09132022FBF80932202909361
:100E70002302A0932402B0932502609120028DE00A
:100E80000E94160280912C0290912D0282309105D1
:100E900080F5019751F561E086E00E9416020E94FC
:100EA00046022B013C0182E3C82ED12CE12CF12C0F
:100EB0000E944602DC01CB0184199509A609B709F5
:100EC000883E9340A105B10558F021E0C21AD1082F
:100ED000E108F10888EE480E83E0581E611C711C81
:100EE000C114D104E104F10419F760E086E00E9426
:100EF00016020E949F0362CEEE0FFF1F881F8BBF5A
:100F00000790F691E02D1994CF93DF9382309105ED
:100F100010F482E090E0E0917303F091740320E01C
:100F200030E0C0E0D0E0309711F1408151814817A6
:100F30005907C0F04817590761F4828193812097BF
:100F400019F09B838A832BC090937403809373035F
:100F500026C02115310519F04217530718F49A01DC
:100F6000BE01DF01EF010280F381E02DDCCF21150E
:100F7000310509F1281B390B2430310590F4129604
:100F80008D919C9113976115710521F0FB0193835D
:100F9000828304C09093740380937303FD0132969F
:100FA00044C0FD01E20FF31F819391932250310958
:100FB0002D933C933AC02091710330917203232BFF
:100FC00041F4209102023091030230937203209386
:100FD000710320910002309101022115310541F485
:100FE0002DB73EB74091040250910502241B350BEA
:100FF000E0917103F0917203E217F307A0F42E1B46
:101000003F0B2817390778F0AC014E5F5F4F24176C
:10101000350748F04E0F5F1F5093720340937103E2
:101020008193919302C0E0E0F0E0CF01DF91CF9196
:1010300008950F931F93CF93DF93009709F48CC00B
:10104000FC01329713821282009173031091740392
:101050000115110581F420813181820F931F2091A8
:101060007103309172032817390779F5F0937203F1
:10107000E093710371C0D80140E050E0AE17BF07A4
:1010800050F412962D913C911397AD012115310525
:1010900009F1D901F3CF9D01DA0133832283608105
:1010A0007181860F971F8217930769F4EC012881DD
:1010B0003981260F371F2E5F3F4F318320838A816E
:1010C0009B8193838283452B29F4F0937403E093EF
:1010D000730342C01396FC93EE931297ED0149916E
:1010E00059919E01240F351FE217F30771F4808197
:1010F0009181840F951F029611969C938E93828105
:10110000938113969C938E931297E0E0F0E0D801C0
:1011100012968D919C911397009719F0F8018C010C
:10112000F6CF8D919C9198012E5F3F4F820F931FB8
:1011300020917103309172032817390769F43097B1
:1011400029F4109274031092730302C01382128266
:101150001093720300937103DF91CF911F910F9150
:1011600008956F927F928F929F92AF92BF92CF928B
:10117000DF92EF92FF920F931F93CF93DF93EC01D7
:10118000009789F4CB01DF91CF911F910F91FF90D0
:10119000EF90DF90CF90BF90AF909F908F907F9017
:1011A0006F900C948407FC01E60FF71F9C012250FE
:1011B0003109E217F30708F4ACC0D9010D911C9175
:1011C000119706171707B0F00530110508F49FC0F6
:1011D000C80104978617970708F499C002501109AF
:1011E000061B170B019311936D937C93CF010E9403
:1011F00019088DC05B01A01AB10A4C01800E911E26
:10120000A0917303B091740340E050E0E12CF12C05
:10121000109709F44AC0A815B905D1F56D907C90D6
:101220001197630182E0C80ED11CCA14DB0480F15F
:10123000A3014A195B096A0182E0C80ED11C12960B
:10124000BC9012971396AC91B5E0CB16D10440F048
:10125000B282A38351834083D9016D937C930AC0EA
:101260000E5F1F4FC301800F911FF901918380838F
:10127000EB2DFA2FE114F10431F0D7011396FC9312
:10128000EE93129744C0F0937403E09373033FC04E
:101290008D919C9111974817590708F4AC017D0175
:1012A00012960D90BC91A02DB3CF809171039091B7
:1012B000720388159905E1F446175707C8F4809121
:1012C000000290910102009741F48DB79EB74091C2
:1012D000040250910502841B950BE817F907C8F426
:1012E000F0937203E0937103F901718360830FC07F
:1012F000CB010E9484077C01009759F0A801BE0130
:101300000E949F09CE010E941908C70104C0CE01A6
:1013100002C080E090E0DF91CF911F910F91FF908C
:10132000EF90DF90CF90BF90AF909F908F907F9085
:101330006F90089581E090E0F8940C94BA09FB0155
:10134000DC0102C001900D9241505040D8F7089541
:10135000FC018191861721F08823D9F799270895F8
:101360003197CF010895FB01DC0101900D9200201F
:08137000E1F70895F894FFCFA6
:101378000000750380000000000036037C02C402F0
:0C1388007D03F502D302E7020D0A00000D
:00000001FF
