:100000000C943A010C946B010C946B010C946B01F1
:100010000C946B010C946B010C946B010C946B01B0
:100020000C946B010C946B010C946B010C946B01A0
:100030000C946B010C946B010C946B010C946B0190
:100040000C946B010C946B010C946B010C946B0180
:100050000C946B010C946B010C946B010C94D30306
:100060000C946B010C949B040C9471040C946B0124
:100070000C946B010C946B010C946B010C946B0150
:100080000C946B010C946B010C946B010C946B0140
:100090000C946B010C946B010C946B010C946B0130
:1000A0000C946B010C946B010C946B010C946B0120
:1000B0000C946B010C946B010C946B010C946B0110
:1000C0000C946B010C946B010C946B010C946B0100
:1000D0000C946B010C946B010C9447040C941D045C
:1000E0000C946B01E201E501D401D801DC011C0292
:1000F000E901ED01F301F701FB010102050209022B
:100100001C020F02130217020C94D8010C949B02DC
:100110000C94C5040C940F020C94FB010C94D401B4
:100120000C9487020C9409020C94E5010C94A9022A
:100130000C94ED010C9478020C9413020C94DC01E5
:100140000C9430020C94F7010C9401020C94E90118
:100150000C94F3010C9405020C94E2010C9431030D
:100160000C94EA020C941C020C94170200000A0B77
:1001700002090C0D0E080703040100000000000036
:10018000000000000000000000000000000000006F
:10019000000000000000000012111000000000002C
:1001A000000000000000000000000000000000004F
:1001B000000000002200250028002B002E00310046
:1001C000340002010000050108010B0100002100BC
:1001D000240027002A002D00300033000101000018
:1001E000040107010A0105050505070508080808B7
:1001F000020202020A0A08080404040401010101BF
:1002000001010101030303030303030304070707B9
:100210000C0C0C0C0C0C0C0C02020202060606065E
:10022000060606060B0B0B0B0B0B0B0B010210202B
:10023000200808102040102040800201020108041C
:1002400002010102040810204080804020100804B0
:100250000201800402018040201008040201080409
:10026000020101020408102040800102040810204D
:100270004080C50411241FBECFEFD1E2DEBFCDBF49
:1002800000E00CBF23E0A8E3B2E001C01D92A33858
:10029000B207E1F712E0A0E0B2E0E4E6F1E100E04D
:1002A0000BBF02C007900D92A833B107D9F711E038
:1002B000CAE3D1E000E006C021970109802FFE01CA
:1002C0000E946906C933D10780E00807A9F70E9498
:1002D00018050C94B0080C940000FC01A089B189A9
:1002E00082E08C93A485B5851C92A685B7858FEC9A
:1002F0008C93108EA489B58986E08C93A289B389EA
:100300008C9180618C93A289B3898C9188608C9345
:10031000A289B3898C9180688C930288F389E02D3F
:1003200080818F7D8083089590E0FC01E45DFD4F26
:100330002491FC01EA51FE4F8491882399F090E0CA
:10034000880F991FFC01E453FE4FA591B491FC0165
:10035000EE54FE4F859194918FB7F894EC91E22B77
:10036000EC938FBF0895362F90E0FC01E459FE4FC7
:100370004491FC01E45DFD4F2491FC01EA51FE4FE4
:100380009491992309F46BC0442309F455C050E0BB
:10039000FA013197E231F10508F04EC08827EE5896
:1003A000FF4F8F4F0C946906809180008F7707C0B4
:1003B000809180008F7D03C080918000877F809333
:1003C00080003AC084B58F7702C084B58F7D84BD2C
:1003D00033C08091B0008F7703C08091B0008F7DD3
:1003E0008093B00029C0809190008F7707C08091E2
:1003F00090008F7D03C080919000877F8093900054
:100400001BC08091A0008F7707C08091A0008F7DD6
:1004100003C08091A000877F8093A0000DC08091D1
:1004200020018F7707C0809120018F7D03C08091CC
:100430002001877F80932001E92FF0E0EE0FFF1F5E
:10044000EE54FE4FA591B4918FB7F894EC91311111
:1004500003C020952E2301C02E2B2C938FBF08950F
:10046000CF92DF92EF92FF920F931F93CF93DF9380
:100470006C017A018B01C0E0D0E0CE15DF0589F078
:10048000D8016D918D01D601ED91FC910190F08123
:10049000E02DC6011995892B11F47E0102C0219629
:1004A000ECCFC701DF91CF911F910F91FF90EF909B
:1004B000DF90CF900895FC01A089B1898C91A68925
:1004C000B78982FD0FC09C91818D8F5F8F73228DC4
:1004D000821749F0218DDF01A20FB11D5D969C931B
:1004E000818F08958C910895089580E090E008959B
:1004F000FC01538D448D252F30E0842F90E0821B2A
:10050000930B541710F0CF96089501970895FC01AE
:10051000918D828D981761F0828DDF01A80FB11D3A
:100520005D968C91928D9F5F9F73928F90E008955E
:100530008FEF9FEF0895FC01918D828D981731F018
:10054000828DE80FF11D858D90E008958FEF9FEF6C
:100550000895FC01918D228D892F90E0805C9F4F42
:10056000821B91098F739927089585E492E00E9478
:10057000A90221E0892B09F420E0822F089582EE60
:1005800092E00E94A90221E0892B09F420E0822F49
:100590000895FC01848DDF01A80FB11DA35ABF4F40
:1005A0002C91848D90E001968F739927848FA68972
:1005B000B7892C93A089B1898C9180648C93938D99
:1005C000848D981306C00288F389E02D80818F7D89
:1005D00080830895EF92FF920F931F93CF93DF9341
:1005E000EC0181E0888F9B8D8C8D981305C0E88984
:1005F000F989808185FD24C0F62E0B8D10E00F5FF8
:100600001F4F0F731127E02E8C8DE8120CC00FB610
:1006100007FCFACFE889F989808185FFF5CFCE0103
:100620000E94C902F1CF8B8DFE01E80FF11DE35A44
:10063000FF4FF0820B8FEA89FB898081806207C0BF
:10064000EE89FF896083E889F989808180648083ED
:1006500081E090E0DF91CF911F910F91FF90EF909B
:100660000895CF93DF93EC01888D8823C9F0EA8940
:10067000FB89808185FD05C0A889B9898C9186FD9B
:100680000FC00FB607FCF5CF808185FFF2CFA88998
:10069000B9898C9185FFEDCFCE010E94C902E7CFC9
:1006A000DF91CF91089580E090E0892B21F00E94A6
:1006B000BF02811121C080E090E0892B41F080E0F1
:1006C00090E0892B21F00E940000811118C080E089
:1006D00090E0892B41F080E090E0892B21F00E948E
:1006E000000081110FC080E090E0892B81F00E9412
:1006F000B50281110AC008950E940000DCCF0E945B
:100700000000E5CF0E940000EECF0C940000089599
:10071000CF93DF93009779F0FC0101900020E9F777
:100720003197AF01481B590BBC0182EE92E00E9449
:100730003002EC0102C0C0E0D0E042E050E068E1ED
:1007400072E082EE92E00E9430028C0F9D1FDF91DA
:10075000CF9108950E9487080F931F93CF93DF9343
:10076000EC0188819981009729F02A813B81261725
:10077000370788F48B016F5F7F4F0E949E070097B9
:1007800061F0998388831B830A832C813D81232B0D
:1007900011F4FC01108281E001C080E0DF91CF9173
:1007A0001F910F9108951F920F920FB60F9211246F
:1007B0002F933F938F939F93AF93BF938091410269
:1007C00090914202A0914302B091440230914002C4
:1007D00023E0230F2D3720F40196A11DB11D05C084
:1007E00026E8230F0296A11DB11D2093400280939D
:1007F000410290934202A0934302B093440280913D
:100800003C0290913D02A0913E02B0913F020196C0
:10081000A11DB11D80933C0290933D02A0933E0226
:10082000B0933F02BF91AF919F918F913F912F91D4
:100830000F900FBE0F901F9018951F920F920FB63A
:100840000F9211240BB60F922F933F934F935F9308
:100850006F937F938F939F93AF93BF93EF93FF9388
:1008600085E492E00E94C902FF91EF91BF91AF91A0
:100870009F918F917F916F915F914F913F912F91B8
:100880000F900BBE0F900FBE0F901F9018951F92E8
:100890000F920FB60F9211240BB60F922F933F9326
:1008A0004F935F936F937F938F939F93AF93BF9378
:1008B000EF93FF9385E492E00E945B02FF91EF913A
:1008C000BF91AF919F918F917F916F915F914F9168
:1008D0003F912F910F900BBE0F900FBE0F901F9066
:1008E00018951F920F920FB60F9211240BB60F920C
:1008F0002F933F934F935F936F937F938F939F9328
:10090000AF93BF93EF93FF9382EE92E00E94C902F0
:10091000FF91EF91BF91AF919F918F917F916F91D7
:100920005F914F913F912F910F900BBE0F900FBE93
:100930000F901F9018951F920F920FB60F921124CF
:100940000BB60F922F933F934F935F936F937F93C9
:100950008F939F93AF93BF93EF93FF9382EE92E0B9
:100960000E945B02FF91EF91BF91AF919F918F9198
:100970007F916F915F914F913F912F910F900BBE9F
:100980000F900FBE0F901F901895E5E4F2E01382D0
:10099000128248EE53E060E070E044835583668342
:1009A00077838AE092E09183808325E331E0358785
:1009B000248724E331E03787268720E331E0318B39
:1009C000208B21E331E0338B228B22E331E0358B26
:1009D000248B26E331E0378B268B118E128E138EFB
:1009E000148EE2EEF2E01382128244835583668312
:1009F00077839183808385EC90E09587848784EC6E
:100A000090E09787868780EC90E0918B808B81ECDB
:100A100090E0938B828B82EC90E0958B848B86ECBC
:100A200090E0978B868B118E128E138E148E089504
:100A3000CF93DF93CDB7DEB728970FB6F894DEBF1C
:100A40000FBECDBF789484B5826084BD84B58160CB
:100A500084BD85B5826085BD85B5816085BD809189
:100A60006E00816080936E00109281008091810001
:100A700082608093810080918100816080938100F9
:100A8000809180008160809380008091B1008460BB
:100A90008093B1008091B00081608093B00080911C
:100AA0009100826080939100809191008160809399
:100AB0009100809190008160809390008091A100CE
:100AC00082608093A1008091A10081608093A10049
:100AD0008091A00081608093A000809121018260BC
:100AE0008093210180912101816080932101809177
:100AF000200181608093200180917A00846080933E
:100B00007A0080917A00826080937A0080917A00E6
:100B1000816080937A0080917A00806880937A0067
:100B20001092C10082EE92E00E946D0185E492E095
:100B30000E946D0188E00E94940189E00E94940166
:100B40008DE00E9494011A8219821C821B821E82EF
:100B50001D8260E070E0CE0101960E94AC03298105
:100B60003A8181110DC02115310519F0C9010E948A
:100B700006071A8219821E821D821C821B8207C0F0
:100B80001E821D826AE172E0C9010E94A9088BE100
:100B900092E00E94880385E492E00E94A902892BDA
:100BA00009F443C085E492E00E9487028F8318868F
:100BB0000D811E810F5F1F4FB801CE0101960E946B
:100BC000AC03882369F029813A818D819E81BE0121
:100BD000695F7F4F820F931F0E94A9081E830D83B8
:100BE0004D815E8169817A8182EE92E00E943002BD
:100BF00042E050E068E172E082EE92E00E94300252
:100C00000D811E810115110521F480B581110DC0E2
:100C100008C060E470E089819A810E94A008892B55
:100C200049F480E392E00E9488030D811E81011542
:100C3000110569F0E980FA806AE270E0C7010E945C
:100C40009508009721F09C012E193F0902C02FEF53
:100C50003FEF309339022093380289819A8112162E
:100C60001306FCF4A9014F5F5F4F4017510738F49A
:100C7000009729F0FC01E40FF51F408101C040E01E
:100C800040933B022E5F3F4F2017310738F4009707
:100C900029F0FC01E20FF31F208101C020E0209326
:100CA0003A020E94060710913B02123040F4612F75
:100CB00088E00E94B301612F8DE00E94B301609132
:100CC0003A02623018F489E00E94B3010E94530393
:100CD0003ACFEE0FFF1F881F8BBF0790F691E02DD4
:100CE0001994CF93DF938230910510F482E090E065
:100CF000E0918103F091820320E030E0C0E0D0E099
:100D0000309711F14081518148175907C0F04817B9
:100D1000590761F482819381209719F09B838A831C
:100D20002BC0909382038093810326C02115310547
:100D300019F04217530718F49A01BE01DF01EF01C1
:100D40000280F381E02DDCCF2115310509F1281B4C
:100D5000390B2430310590F412968D919C911397A4
:100D60006115710521F0FB019383828304C0909388
:100D7000820380938103FD01329644C0FD01E20F9E
:100D8000F31F81939193225031092D933C933AC0E4
:100D900020917F0330918003232B41F420910202A4
:100DA000309103023093800320937F03209100024F
:100DB000309101022115310541F42DB73EB7409124
:100DC000040250910502241B350BE0917F03F09142
:100DD0008003E217F307A0F42E1B3F0B28173907F7
:100DE00078F0AC014E5F5F4F2417350748F04E0F87
:100DF0005F1F5093800340937F038193919302C0C0
:100E0000E0E0F0E0CF01DF91CF9108950F931F93C1
:100E1000CF93DF93009709F48CC0FC0132971382C3
:100E2000128200918103109182030115110581F452
:100E300020813181820F931F20917F0330918003A5
:100E40002817390779F5F0938003E0937F0371C089
:100E5000D80140E050E0AE17BF0750F412962D9134
:100E60003C911397AD012115310509F1D901F3CF5B
:100E70009D01DA013383228360817181860F971F80
:100E80008217930769F4EC0128813981260F371FF7
:100E90002E5F3F4F318320838A819B81938382839E
:100EA000452B29F4F0938203E093810342C013960B
:100EB000FC93EE931297ED01499159919E01240FF5
:100EC000351FE217F30771F480819181840F951F1C
:100ED000029611969C938E938281938113969C9394
:100EE0008E931297E0E0F0E0D80112968D919C91DC
:100EF0001397009719F0F8018C01F6CF8D919C9112
:100F000098012E5F3F4F820F931F20917F033091F6
:100F100080032817390769F4309729F41092820367
:100F20001092810302C013821282109380030093F7
:100F30007F03DF91CF911F910F9108956F927F9260
:100F40008F929F92AF92BF92CF92DF92EF92FF92D9
:100F50000F931F93CF93DF93EC01009789F4CB019C
:100F6000DF91CF911F910F91FF90EF90DF90CF9085
:100F7000BF90AF909F908F907F906F900C94710670
:100F8000FC01E60FF71F9C0122503109E217F3071D
:100F900008F4ACC0D9010D911C91119706171707E1
:100FA000B0F00530110508F49FC0C80104978617FA
:100FB000970708F499C002501109061B170B0193FB
:100FC00011936D937C93CF010E9406078DC05B0146
:100FD000A01AB10A4C01800E911EA0918103B0911C
:100FE000820340E050E0E12CF12C109709F44AC054
:100FF000A815B905D1F56D907C901197630182E039
:10100000C80ED11CCA14DB0480F1A3014A195B0984
:101010006A0182E0C80ED11C1296BC9012971396FA
:10102000AC91B5E0CB16D10440F0B282A3835183DA
:101030004083D9016D937C930AC00E5F1F4FC3019B
:10104000800F911FF90191838083EB2DFA2FE1141A
:10105000F10431F0D7011396FC93EE93129744C03C
:10106000F0938203E09381033FC08D919C9111978F
:101070004817590708F4AC017D0112960D90BC91F8
:10108000A02DB3CF80917F0390918003881599059F
:10109000E1F446175707C8F48091000290910102CD
:1010A000009741F48DB79EB740910402509105021C
:1010B000841B950BE817F907C8F4F0938003E093BD
:1010C0007F03F901718360830FC0CB010E94710619
:1010D0007C01009759F0A801BE010E948C08CE0146
:1010E0000E940607C70104C0CE0102C080E090E064
:1010F000DF91CF911F910F91FF90EF90DF90CF90F4
:10110000BF90AF909F908F907F906F90089581E0F7
:1011100090E0F8940C94B008FB01DC0102C001904F
:101120000D9241505040D8F70895FC0181918617E7
:1011300021F08823D9F7992708953197CF01089591
:10114000FB01DC018D91019080190110D9F3990BFD
:101150000895FB01DC0101900D920020E1F7089554
:04116000F894FFCF31
:1011640000008303800000000000EA0230027802DD
:101174003103A90287029B020D0A00456E74657251
:10118400696E67206669727374207768696C65009C
:081194006C656176696E67006D
:00000001FF
